{
  "_format": "hh-sol-artifact-1",
  "contractName": "OrionEncryptedVault",
  "sourceName": "contracts/vaults/OrionEncryptedVault.sol",
  "abi": [
    {
      "inputs": [
        {
          "internalType": "address",
          "name": "vaultOwner",
          "type": "address"
        },
        {
          "internalType": "address",
          "name": "curator",
          "type": "address"
        },
        {
          "internalType": "contract IOrionConfig",
          "name": "configAddress",
          "type": "address"
        },
        {
          "internalType": "string",
          "name": "name",
          "type": "string"
        },
        {
          "internalType": "string",
          "name": "symbol",
          "type": "string"
        },
        {
          "internalType": "uint8",
          "name": "feeType",
          "type": "uint8"
        },
        {
          "internalType": "uint16",
          "name": "performanceFee",
          "type": "uint16"
        },
        {
          "internalType": "uint16",
          "name": "managementFee",
          "type": "uint16"
        }
      ],
      "stateMutability": "nonpayable",
      "type": "constructor"
    },
    {
      "inputs": [],
      "name": "AlreadyRegistered",
      "type": "error"
    },
    {
      "inputs": [
        {
          "internalType": "address",
          "name": "asset",
          "type": "address"
        }
      ],
      "name": "AmountMustBeGreaterThanZero",
      "type": "error"
    },
    {
      "inputs": [
        {
          "internalType": "address",
          "name": "spender",
          "type": "address"
        },
        {
          "internalType": "uint256",
          "name": "allowance",
          "type": "uint256"
        },
        {
          "internalType": "uint256",
          "name": "needed",
          "type": "uint256"
        }
      ],
      "name": "ERC20InsufficientAllowance",
      "type": "error"
    },
    {
      "inputs": [
        {
          "internalType": "address",
          "name": "sender",
          "type": "address"
        },
        {
          "internalType": "uint256",
          "name": "balance",
          "type": "uint256"
        },
        {
          "internalType": "uint256",
          "name": "needed",
          "type": "uint256"
        }
      ],
      "name": "ERC20InsufficientBalance",
      "type": "error"
    },
    {
      "inputs": [
        {
          "internalType": "address",
          "name": "approver",
          "type": "address"
        }
      ],
      "name": "ERC20InvalidApprover",
      "type": "error"
    },
    {
      "inputs": [
        {
          "internalType": "address",
          "name": "receiver",
          "type": "address"
        }
      ],
      "name": "ERC20InvalidReceiver",
      "type": "error"
    },
    {
      "inputs": [
        {
          "internalType": "address",
          "name": "sender",
          "type": "address"
        }
      ],
      "name": "ERC20InvalidSender",
      "type": "error"
    },
    {
      "inputs": [
        {
          "internalType": "address",
          "name": "spender",
          "type": "address"
        }
      ],
      "name": "ERC20InvalidSpender",
      "type": "error"
    },
    {
      "inputs": [
        {
          "internalType": "address",
          "name": "receiver",
          "type": "address"
        },
        {
          "internalType": "uint256",
          "name": "assets",
          "type": "uint256"
        },
        {
          "internalType": "uint256",
          "name": "max",
          "type": "uint256"
        }
      ],
      "name": "ERC4626ExceededMaxDeposit",
      "type": "error"
    },
    {
      "inputs": [
        {
          "internalType": "address",
          "name": "receiver",
          "type": "address"
        },
        {
          "internalType": "uint256",
          "name": "shares",
          "type": "uint256"
        },
        {
          "internalType": "uint256",
          "name": "max",
          "type": "uint256"
        }
      ],
      "name": "ERC4626ExceededMaxMint",
      "type": "error"
    },
    {
      "inputs": [
        {
          "internalType": "address",
          "name": "owner",
          "type": "address"
        },
        {
          "internalType": "uint256",
          "name": "shares",
          "type": "uint256"
        },
        {
          "internalType": "uint256",
          "name": "max",
          "type": "uint256"
        }
      ],
      "name": "ERC4626ExceededMaxRedeem",
      "type": "error"
    },
    {
      "inputs": [
        {
          "internalType": "address",
          "name": "owner",
          "type": "address"
        },
        {
          "internalType": "uint256",
          "name": "assets",
          "type": "uint256"
        },
        {
          "internalType": "uint256",
          "name": "max",
          "type": "uint256"
        }
      ],
      "name": "ERC4626ExceededMaxWithdraw",
      "type": "error"
    },
    {
      "inputs": [],
      "name": "HandlesAlreadySavedForRequestID",
      "type": "error"
    },
    {
      "inputs": [],
      "name": "InsufficientAmount",
      "type": "error"
    },
    {
      "inputs": [],
      "name": "InvalidAddress",
      "type": "error"
    },
    {
      "inputs": [],
      "name": "InvalidArguments",
      "type": "error"
    },
    {
      "inputs": [],
      "name": "InvalidKMSSignatures",
      "type": "error"
    },
    {
      "inputs": [],
      "name": "InvalidUnderlyingDecimals",
      "type": "error"
    },
    {
      "inputs": [],
      "name": "NoHandleFoundForRequestID",
      "type": "error"
    },
    {
      "inputs": [],
      "name": "OrderIntentCannotBeEmpty",
      "type": "error"
    },
    {
      "inputs": [],
      "name": "ReentrancyGuardReentrantCall",
      "type": "error"
    },
    {
      "inputs": [],
      "name": "SynchronousCallDisabled",
      "type": "error"
    },
    {
      "inputs": [],
      "name": "SystemNotIdle",
      "type": "error"
    },
    {
      "inputs": [
        {
          "internalType": "address",
          "name": "token",
          "type": "address"
        }
      ],
      "name": "TokenAlreadyInOrder",
      "type": "error"
    },
    {
      "inputs": [
        {
          "internalType": "address",
          "name": "token",
          "type": "address"
        }
      ],
      "name": "TokenNotWhitelisted",
      "type": "error"
    },
    {
      "inputs": [],
      "name": "TransferFailed",
      "type": "error"
    },
    {
      "inputs": [],
      "name": "UnauthorizedAccess",
      "type": "error"
    },
    {
      "anonymous": false,
      "inputs": [
        {
          "indexed": true,
          "internalType": "address",
          "name": "owner",
          "type": "address"
        },
        {
          "indexed": true,
          "internalType": "address",
          "name": "spender",
          "type": "address"
        },
        {
          "indexed": false,
          "internalType": "uint256",
          "name": "value",
          "type": "uint256"
        }
      ],
      "name": "Approval",
      "type": "event"
    },
    {
      "anonymous": false,
      "inputs": [
        {
          "indexed": true,
          "internalType": "uint256",
          "name": "epoch",
          "type": "uint256"
        },
        {
          "indexed": true,
          "internalType": "uint256",
          "name": "feeAmount",
          "type": "uint256"
        },
        {
          "indexed": true,
          "internalType": "uint256",
          "name": "pendingCuratorFees",
          "type": "uint256"
        }
      ],
      "name": "CuratorFeesAccrued",
      "type": "event"
    },
    {
      "anonymous": false,
      "inputs": [
        {
          "indexed": true,
          "internalType": "address",
          "name": "newCurator",
          "type": "address"
        }
      ],
      "name": "CuratorUpdated",
      "type": "event"
    },
    {
      "anonymous": false,
      "inputs": [
        {
          "indexed": true,
          "internalType": "uint256",
          "name": "requestID",
          "type": "uint256"
        }
      ],
      "name": "DecryptionFulfilled",
      "type": "event"
    },
    {
      "anonymous": false,
      "inputs": [
        {
          "indexed": true,
          "internalType": "address",
          "name": "sender",
          "type": "address"
        },
        {
          "indexed": true,
          "internalType": "address",
          "name": "owner",
          "type": "address"
        },
        {
          "indexed": false,
          "internalType": "uint256",
          "name": "assets",
          "type": "uint256"
        },
        {
          "indexed": false,
          "internalType": "uint256",
          "name": "shares",
          "type": "uint256"
        }
      ],
      "name": "Deposit",
      "type": "event"
    },
    {
      "anonymous": false,
      "inputs": [
        {
          "indexed": true,
          "internalType": "address",
          "name": "user",
          "type": "address"
        },
        {
          "indexed": true,
          "internalType": "uint256",
          "name": "amount",
          "type": "uint256"
        },
        {
          "indexed": true,
          "internalType": "uint256",
          "name": "shares",
          "type": "uint256"
        }
      ],
      "name": "Deposit",
      "type": "event"
    },
    {
      "anonymous": false,
      "inputs": [
        {
          "indexed": true,
          "internalType": "address",
          "name": "sender",
          "type": "address"
        },
        {
          "indexed": true,
          "internalType": "uint256",
          "name": "assets",
          "type": "uint256"
        }
      ],
      "name": "DepositRequest",
      "type": "event"
    },
    {
      "anonymous": false,
      "inputs": [
        {
          "indexed": true,
          "internalType": "address",
          "name": "user",
          "type": "address"
        },
        {
          "indexed": true,
          "internalType": "uint256",
          "name": "amount",
          "type": "uint256"
        }
      ],
      "name": "DepositRequestCancelled",
      "type": "event"
    },
    {
      "anonymous": false,
      "inputs": [
        {
          "indexed": true,
          "internalType": "uint8",
          "name": "mode",
          "type": "uint8"
        },
        {
          "indexed": true,
          "internalType": "uint16",
          "name": "performanceFee",
          "type": "uint16"
        },
        {
          "indexed": true,
          "internalType": "uint16",
          "name": "managementFee",
          "type": "uint16"
        }
      ],
      "name": "FeeModelUpdated",
      "type": "event"
    },
    {
      "anonymous": false,
      "inputs": [
        {
          "indexed": true,
          "internalType": "address",
          "name": "curator",
          "type": "address"
        }
      ],
      "name": "OrderSubmitted",
      "type": "event"
    },
    {
      "anonymous": false,
      "inputs": [
        {
          "indexed": true,
          "internalType": "address",
          "name": "sender",
          "type": "address"
        },
        {
          "indexed": true,
          "internalType": "uint256",
          "name": "shares",
          "type": "uint256"
        }
      ],
      "name": "RedeemRequest",
      "type": "event"
    },
    {
      "anonymous": false,
      "inputs": [
        {
          "indexed": true,
          "internalType": "address",
          "name": "user",
          "type": "address"
        },
        {
          "indexed": true,
          "internalType": "uint256",
          "name": "shares",
          "type": "uint256"
        }
      ],
      "name": "RedeemRequestCancelled",
      "type": "event"
    },
    {
      "anonymous": false,
      "inputs": [
        {
          "indexed": true,
          "internalType": "address",
          "name": "from",
          "type": "address"
        },
        {
          "indexed": true,
          "internalType": "address",
          "name": "to",
          "type": "address"
        },
        {
          "indexed": false,
          "internalType": "uint256",
          "name": "value",
          "type": "uint256"
        }
      ],
      "name": "Transfer",
      "type": "event"
    },
    {
      "anonymous": false,
      "inputs": [
        {
          "indexed": true,
          "internalType": "uint256",
          "name": "newTotalAssets",
          "type": "uint256"
        }
      ],
      "name": "VaultStateUpdated",
      "type": "event"
    },
    {
      "anonymous": false,
      "inputs": [
        {
          "indexed": true,
          "internalType": "address",
          "name": "sender",
          "type": "address"
        },
        {
          "indexed": true,
          "internalType": "address",
          "name": "receiver",
          "type": "address"
        },
        {
          "indexed": true,
          "internalType": "address",
          "name": "owner",
          "type": "address"
        },
        {
          "indexed": false,
          "internalType": "uint256",
          "name": "assets",
          "type": "uint256"
        },
        {
          "indexed": false,
          "internalType": "uint256",
          "name": "shares",
          "type": "uint256"
        }
      ],
      "name": "Withdraw",
      "type": "event"
    },
    {
      "anonymous": false,
      "inputs": [
        {
          "indexed": true,
          "internalType": "address",
          "name": "user",
          "type": "address"
        },
        {
          "indexed": true,
          "internalType": "uint256",
          "name": "assets",
          "type": "uint256"
        },
        {
          "indexed": true,
          "internalType": "uint256",
          "name": "shares",
          "type": "uint256"
        }
      ],
      "name": "Withdraw",
      "type": "event"
    },
    {
      "inputs": [],
      "name": "BASIS_POINTS_FACTOR",
      "outputs": [
        {
          "internalType": "uint16",
          "name": "",
          "type": "uint16"
        }
      ],
      "stateMutability": "view",
      "type": "function"
    },
    {
      "inputs": [],
      "name": "MAX_MANAGEMENT_FEE",
      "outputs": [
        {
          "internalType": "uint16",
          "name": "",
          "type": "uint16"
        }
      ],
      "stateMutability": "view",
      "type": "function"
    },
    {
      "inputs": [],
      "name": "MAX_PERFORMANCE_FEE",
      "outputs": [
        {
          "internalType": "uint16",
          "name": "",
          "type": "uint16"
        }
      ],
      "stateMutability": "view",
      "type": "function"
    },
    {
      "inputs": [],
      "name": "SHARE_DECIMALS",
      "outputs": [
        {
          "internalType": "uint8",
          "name": "",
          "type": "uint8"
        }
      ],
      "stateMutability": "view",
      "type": "function"
    },
    {
      "inputs": [],
      "name": "YEAR_IN_SECONDS",
      "outputs": [
        {
          "internalType": "uint32",
          "name": "",
          "type": "uint32"
        }
      ],
      "stateMutability": "view",
      "type": "function"
    },
    {
      "inputs": [
        {
          "internalType": "uint256",
          "name": "epoch",
          "type": "uint256"
        },
        {
          "internalType": "uint256",
          "name": "feeAmount",
          "type": "uint256"
        }
      ],
      "name": "accrueCuratorFees",
      "outputs": [],
      "stateMutability": "nonpayable",
      "type": "function"
    },
    {
      "inputs": [
        {
          "internalType": "address",
          "name": "owner",
          "type": "address"
        },
        {
          "internalType": "address",
          "name": "spender",
          "type": "address"
        }
      ],
      "name": "allowance",
      "outputs": [
        {
          "internalType": "uint256",
          "name": "",
          "type": "uint256"
        }
      ],
      "stateMutability": "view",
      "type": "function"
    },
    {
      "inputs": [
        {
          "internalType": "address",
          "name": "spender",
          "type": "address"
        },
        {
          "internalType": "uint256",
          "name": "value",
          "type": "uint256"
        }
      ],
      "name": "approve",
      "outputs": [
        {
          "internalType": "bool",
          "name": "",
          "type": "bool"
        }
      ],
      "stateMutability": "nonpayable",
      "type": "function"
    },
    {
      "inputs": [],
      "name": "asset",
      "outputs": [
        {
          "internalType": "address",
          "name": "",
          "type": "address"
        }
      ],
      "stateMutability": "view",
      "type": "function"
    },
    {
      "inputs": [
        {
          "internalType": "address",
          "name": "account",
          "type": "address"
        }
      ],
      "name": "balanceOf",
      "outputs": [
        {
          "internalType": "uint256",
          "name": "",
          "type": "uint256"
        }
      ],
      "stateMutability": "view",
      "type": "function"
    },
    {
      "inputs": [
        {
          "internalType": "uint256",
          "name": "requestID",
          "type": "uint256"
        },
        {
          "internalType": "bytes",
          "name": "cleartexts",
          "type": "bytes"
        },
        {
          "internalType": "bytes",
          "name": "decryptionProof",
          "type": "bytes"
        }
      ],
      "name": "callbackDecryptSingleEbool",
      "outputs": [],
      "stateMutability": "nonpayable",
      "type": "function"
    },
    {
      "inputs": [
        {
          "internalType": "uint256",
          "name": "amount",
          "type": "uint256"
        }
      ],
      "name": "cancelDepositRequest",
      "outputs": [],
      "stateMutability": "nonpayable",
      "type": "function"
    },
    {
      "inputs": [
        {
          "internalType": "uint256",
          "name": "shares",
          "type": "uint256"
        }
      ],
      "name": "cancelRedeemRequest",
      "outputs": [],
      "stateMutability": "nonpayable",
      "type": "function"
    },
    {
      "inputs": [
        {
          "internalType": "uint256",
          "name": "amount",
          "type": "uint256"
        }
      ],
      "name": "claimCuratorFees",
      "outputs": [],
      "stateMutability": "nonpayable",
      "type": "function"
    },
    {
      "inputs": [],
      "name": "config",
      "outputs": [
        {
          "internalType": "contract IOrionConfig",
          "name": "",
          "type": "address"
        }
      ],
      "stateMutability": "view",
      "type": "function"
    },
    {
      "inputs": [
        {
          "internalType": "uint256",
          "name": "shares",
          "type": "uint256"
        }
      ],
      "name": "convertToAssets",
      "outputs": [
        {
          "internalType": "uint256",
          "name": "",
          "type": "uint256"
        }
      ],
      "stateMutability": "view",
      "type": "function"
    },
    {
      "inputs": [
        {
          "internalType": "uint256",
          "name": "shares",
          "type": "uint256"
        },
        {
          "internalType": "uint256",
          "name": "pointInTimeTotalAssets",
          "type": "uint256"
        },
        {
          "internalType": "enum Math.Rounding",
          "name": "rounding",
          "type": "uint8"
        }
      ],
      "name": "convertToAssetsWithPITTotalAssets",
      "outputs": [
        {
          "internalType": "uint256",
          "name": "",
          "type": "uint256"
        }
      ],
      "stateMutability": "view",
      "type": "function"
    },
    {
      "inputs": [
        {
          "internalType": "uint256",
          "name": "assets",
          "type": "uint256"
        }
      ],
      "name": "convertToShares",
      "outputs": [
        {
          "internalType": "uint256",
          "name": "",
          "type": "uint256"
        }
      ],
      "stateMutability": "view",
      "type": "function"
    },
    {
      "inputs": [
        {
          "internalType": "uint256",
          "name": "assets",
          "type": "uint256"
        },
        {
          "internalType": "uint256",
          "name": "pointInTimeTotalAssets",
          "type": "uint256"
        },
        {
          "internalType": "enum Math.Rounding",
          "name": "rounding",
          "type": "uint8"
        }
      ],
      "name": "convertToSharesWithPITTotalAssets",
      "outputs": [
        {
          "internalType": "uint256",
          "name": "",
          "type": "uint256"
        }
      ],
      "stateMutability": "view",
      "type": "function"
    },
    {
      "inputs": [],
      "name": "curator",
      "outputs": [
        {
          "internalType": "address",
          "name": "",
          "type": "address"
        }
      ],
      "stateMutability": "view",
      "type": "function"
    },
    {
      "inputs": [
        {
          "internalType": "uint256",
          "name": "activeTotalAssets",
          "type": "uint256"
        }
      ],
      "name": "curatorFee",
      "outputs": [
        {
          "internalType": "uint256",
          "name": "",
          "type": "uint256"
        }
      ],
      "stateMutability": "view",
      "type": "function"
    },
    {
      "inputs": [],
      "name": "curatorIntentDecimals",
      "outputs": [
        {
          "internalType": "uint8",
          "name": "",
          "type": "uint8"
        }
      ],
      "stateMutability": "view",
      "type": "function"
    },
    {
      "inputs": [],
      "name": "decimals",
      "outputs": [
        {
          "internalType": "uint8",
          "name": "",
          "type": "uint8"
        }
      ],
      "stateMutability": "view",
      "type": "function"
    },
    {
      "inputs": [
        {
          "internalType": "uint256",
          "name": "",
          "type": "uint256"
        },
        {
          "internalType": "address",
          "name": "",
          "type": "address"
        }
      ],
      "name": "deposit",
      "outputs": [
        {
          "internalType": "uint256",
          "name": "",
          "type": "uint256"
        }
      ],
      "stateMutability": "pure",
      "type": "function"
    },
    {
      "inputs": [],
      "name": "feeModel",
      "outputs": [
        {
          "internalType": "enum OrionVault.FeeType",
          "name": "feeType",
          "type": "uint8"
        },
        {
          "internalType": "uint16",
          "name": "performanceFee",
          "type": "uint16"
        },
        {
          "internalType": "uint16",
          "name": "managementFee",
          "type": "uint16"
        },
        {
          "internalType": "uint256",
          "name": "highWaterMark",
          "type": "uint256"
        }
      ],
      "stateMutability": "view",
      "type": "function"
    },
    {
      "inputs": [
        {
          "internalType": "uint256",
          "name": "depositTotalAssets",
          "type": "uint256"
        }
      ],
      "name": "fulfillDeposit",
      "outputs": [],
      "stateMutability": "nonpayable",
      "type": "function"
    },
    {
      "inputs": [
        {
          "internalType": "uint256",
          "name": "redeemTotalAssets",
          "type": "uint256"
        }
      ],
      "name": "fulfillRedeem",
      "outputs": [],
      "stateMutability": "nonpayable",
      "type": "function"
    },
    {
      "inputs": [],
      "name": "getIntent",
      "outputs": [
        {
          "internalType": "address[]",
          "name": "tokens",
          "type": "address[]"
        },
        {
          "internalType": "euint128[]",
          "name": "weights",
          "type": "bytes32[]"
        }
      ],
      "stateMutability": "view",
      "type": "function"
    },
    {
      "inputs": [],
      "name": "getPortfolio",
      "outputs": [
        {
          "internalType": "address[]",
          "name": "tokens",
          "type": "address[]"
        },
        {
          "internalType": "euint128[]",
          "name": "sharesPerAsset",
          "type": "bytes32[]"
        }
      ],
      "stateMutability": "view",
      "type": "function"
    },
    {
      "inputs": [],
      "name": "internalStatesOrchestrator",
      "outputs": [
        {
          "internalType": "contract IInternalStateOrchestrator",
          "name": "",
          "type": "address"
        }
      ],
      "stateMutability": "view",
      "type": "function"
    },
    {
      "inputs": [],
      "name": "isIntentValid",
      "outputs": [
        {
          "internalType": "bool",
          "name": "",
          "type": "bool"
        }
      ],
      "stateMutability": "view",
      "type": "function"
    },
    {
      "inputs": [],
      "name": "liquidityOrchestrator",
      "outputs": [
        {
          "internalType": "contract ILiquidityOrchestrator",
          "name": "",
          "type": "address"
        }
      ],
      "stateMutability": "view",
      "type": "function"
    },
    {
      "inputs": [
        {
          "internalType": "address",
          "name": "",
          "type": "address"
        }
      ],
      "name": "maxDeposit",
      "outputs": [
        {
          "internalType": "uint256",
          "name": "",
          "type": "uint256"
        }
      ],
      "stateMutability": "view",
      "type": "function"
    },
    {
      "inputs": [
        {
          "internalType": "address",
          "name": "",
          "type": "address"
        }
      ],
      "name": "maxMint",
      "outputs": [
        {
          "internalType": "uint256",
          "name": "",
          "type": "uint256"
        }
      ],
      "stateMutability": "view",
      "type": "function"
    },
    {
      "inputs": [
        {
          "internalType": "address",
          "name": "owner",
          "type": "address"
        }
      ],
      "name": "maxRedeem",
      "outputs": [
        {
          "internalType": "uint256",
          "name": "",
          "type": "uint256"
        }
      ],
      "stateMutability": "view",
      "type": "function"
    },
    {
      "inputs": [
        {
          "internalType": "address",
          "name": "owner",
          "type": "address"
        }
      ],
      "name": "maxWithdraw",
      "outputs": [
        {
          "internalType": "uint256",
          "name": "",
          "type": "uint256"
        }
      ],
      "stateMutability": "view",
      "type": "function"
    },
    {
      "inputs": [
        {
          "internalType": "uint256",
          "name": "",
          "type": "uint256"
        },
        {
          "internalType": "address",
          "name": "",
          "type": "address"
        }
      ],
      "name": "mint",
      "outputs": [
        {
          "internalType": "uint256",
          "name": "",
          "type": "uint256"
        }
      ],
      "stateMutability": "pure",
      "type": "function"
    },
    {
      "inputs": [],
      "name": "name",
      "outputs": [
        {
          "internalType": "string",
          "name": "",
          "type": "string"
        }
      ],
      "stateMutability": "view",
      "type": "function"
    },
    {
      "inputs": [],
      "name": "pendingCuratorFees",
      "outputs": [
        {
          "internalType": "uint256",
          "name": "",
          "type": "uint256"
        }
      ],
      "stateMutability": "view",
      "type": "function"
    },
    {
      "inputs": [],
      "name": "pendingDeposit",
      "outputs": [
        {
          "internalType": "uint256",
          "name": "",
          "type": "uint256"
        }
      ],
      "stateMutability": "view",
      "type": "function"
    },
    {
      "inputs": [],
      "name": "pendingRedeem",
      "outputs": [
        {
          "internalType": "uint256",
          "name": "",
          "type": "uint256"
        }
      ],
      "stateMutability": "view",
      "type": "function"
    },
    {
      "inputs": [
        {
          "internalType": "uint256",
          "name": "",
          "type": "uint256"
        }
      ],
      "name": "previewDeposit",
      "outputs": [
        {
          "internalType": "uint256",
          "name": "",
          "type": "uint256"
        }
      ],
      "stateMutability": "pure",
      "type": "function"
    },
    {
      "inputs": [
        {
          "internalType": "uint256",
          "name": "",
          "type": "uint256"
        }
      ],
      "name": "previewMint",
      "outputs": [
        {
          "internalType": "uint256",
          "name": "",
          "type": "uint256"
        }
      ],
      "stateMutability": "pure",
      "type": "function"
    },
    {
      "inputs": [
        {
          "internalType": "uint256",
          "name": "",
          "type": "uint256"
        }
      ],
      "name": "previewRedeem",
      "outputs": [
        {
          "internalType": "uint256",
          "name": "",
          "type": "uint256"
        }
      ],
      "stateMutability": "pure",
      "type": "function"
    },
    {
      "inputs": [
        {
          "internalType": "uint256",
          "name": "",
          "type": "uint256"
        }
      ],
      "name": "previewWithdraw",
      "outputs": [
        {
          "internalType": "uint256",
          "name": "",
          "type": "uint256"
        }
      ],
      "stateMutability": "pure",
      "type": "function"
    },
    {
      "inputs": [],
      "name": "protocolId",
      "outputs": [
        {
          "internalType": "uint256",
          "name": "",
          "type": "uint256"
        }
      ],
      "stateMutability": "pure",
      "type": "function"
    },
    {
      "inputs": [
        {
          "internalType": "uint256",
          "name": "",
          "type": "uint256"
        },
        {
          "internalType": "address",
          "name": "",
          "type": "address"
        },
        {
          "internalType": "address",
          "name": "",
          "type": "address"
        }
      ],
      "name": "redeem",
      "outputs": [
        {
          "internalType": "uint256",
          "name": "",
          "type": "uint256"
        }
      ],
      "stateMutability": "pure",
      "type": "function"
    },
    {
      "inputs": [
        {
          "internalType": "uint256",
          "name": "assets",
          "type": "uint256"
        }
      ],
      "name": "requestDeposit",
      "outputs": [],
      "stateMutability": "nonpayable",
      "type": "function"
    },
    {
      "inputs": [
        {
          "internalType": "uint256",
          "name": "shares",
          "type": "uint256"
        }
      ],
      "name": "requestRedeem",
      "outputs": [],
      "stateMutability": "nonpayable",
      "type": "function"
    },
    {
      "inputs": [
        {
          "components": [
            {
              "internalType": "address",
              "name": "token",
              "type": "address"
            },
            {
              "internalType": "externalEuint128",
              "name": "weight",
              "type": "bytes32"
            }
          ],
          "internalType": "struct IOrionEncryptedVault.EncryptedIntent[]",
          "name": "intent",
          "type": "tuple[]"
        },
        {
          "internalType": "bytes",
          "name": "inputProof",
          "type": "bytes"
        }
      ],
      "name": "submitIntent",
      "outputs": [],
      "stateMutability": "nonpayable",
      "type": "function"
    },
    {
      "inputs": [],
      "name": "symbol",
      "outputs": [
        {
          "internalType": "string",
          "name": "",
          "type": "string"
        }
      ],
      "stateMutability": "view",
      "type": "function"
    },
    {
      "inputs": [],
      "name": "totalAssets",
      "outputs": [
        {
          "internalType": "uint256",
          "name": "",
          "type": "uint256"
        }
      ],
      "stateMutability": "view",
      "type": "function"
    },
    {
      "inputs": [],
      "name": "totalSupply",
      "outputs": [
        {
          "internalType": "uint256",
          "name": "",
          "type": "uint256"
        }
      ],
      "stateMutability": "view",
      "type": "function"
    },
    {
      "inputs": [
        {
          "internalType": "address",
          "name": "to",
          "type": "address"
        },
        {
          "internalType": "uint256",
          "name": "value",
          "type": "uint256"
        }
      ],
      "name": "transfer",
      "outputs": [
        {
          "internalType": "bool",
          "name": "",
          "type": "bool"
        }
      ],
      "stateMutability": "nonpayable",
      "type": "function"
    },
    {
      "inputs": [
        {
          "internalType": "address",
          "name": "from",
          "type": "address"
        },
        {
          "internalType": "address",
          "name": "to",
          "type": "address"
        },
        {
          "internalType": "uint256",
          "name": "value",
          "type": "uint256"
        }
      ],
      "name": "transferFrom",
      "outputs": [
        {
          "internalType": "bool",
          "name": "",
          "type": "bool"
        }
      ],
      "stateMutability": "nonpayable",
      "type": "function"
    },
    {
      "inputs": [
        {
          "internalType": "address",
          "name": "newCurator",
          "type": "address"
        }
      ],
      "name": "updateCurator",
      "outputs": [],
      "stateMutability": "nonpayable",
      "type": "function"
    },
    {
      "inputs": [
        {
          "internalType": "uint8",
          "name": "feeType",
          "type": "uint8"
        },
        {
          "internalType": "uint16",
          "name": "performanceFee",
          "type": "uint16"
        },
        {
          "internalType": "uint16",
          "name": "managementFee",
          "type": "uint16"
        }
      ],
      "name": "updateFeeModel",
      "outputs": [],
      "stateMutability": "nonpayable",
      "type": "function"
    },
    {
      "inputs": [
        {
          "components": [
            {
              "internalType": "address",
              "name": "token",
              "type": "address"
            },
            {
              "internalType": "euint128",
              "name": "value",
              "type": "bytes32"
            }
          ],
          "internalType": "struct IOrionEncryptedVault.EncryptedPortfolio[]",
          "name": "portfolio",
          "type": "tuple[]"
        },
        {
          "internalType": "uint256",
          "name": "newTotalAssets",
          "type": "uint256"
        }
      ],
      "name": "updateVaultState",
      "outputs": [],
      "stateMutability": "nonpayable",
      "type": "function"
    },
    {
      "inputs": [
        {
          "internalType": "address[]",
          "name": "assets",
          "type": "address[]"
        }
      ],
      "name": "updateVaultWhitelist",
      "outputs": [],
      "stateMutability": "nonpayable",
      "type": "function"
    },
    {
      "inputs": [],
      "name": "vaultOwner",
      "outputs": [
        {
          "internalType": "address",
          "name": "",
          "type": "address"
        }
      ],
      "stateMutability": "view",
      "type": "function"
    },
    {
      "inputs": [],
      "name": "vaultWhitelist",
      "outputs": [
        {
          "internalType": "address[]",
          "name": "",
          "type": "address[]"
        }
      ],
      "stateMutability": "view",
      "type": "function"
    },
    {
      "inputs": [
        {
          "internalType": "uint256",
          "name": "",
          "type": "uint256"
        },
        {
          "internalType": "address",
          "name": "",
          "type": "address"
        },
        {
          "internalType": "address",
          "name": "",
          "type": "address"
        }
      ],
      "name": "withdraw",
      "outputs": [
        {
          "internalType": "uint256",
          "name": "",
          "type": "uint256"
        }
      ],
      "stateMutability": "pure",
      "type": "function"
    }
  ],
  "bytecode": "0x60c060405234801561000f575f5ffd5b5060405161535b38038061535b83398101604081905261002e91610b0b565b8787878787878787856001600160a01b0316637158da7c6040518163ffffffff1660e01b8152600401602060405180830381865afa158015610072573d5f5f3e3d5ffd5b505050506040513d601f19601f820116820180604052508101906100969190610bda565b858561013b610136604080516080810182525f80825260208201819052918101829052606081019190915250604080516080810182527350157cffd6bbfa2dece204a89ec419c23ef5755d815273cd3ab3bd6bcc0c0bf3e27912a92043e817b1cf69602082015273a02cda4ca3a71d7c46997716f4283aa851c2881291810191909152731364cbbf2cdf5032c47d8226a6f6fbd2afcdacac606082015290565b610605565b60036101478382610c79565b5060046101548282610c79565b5050505f5f610168836106be60201b60201c565b915091508161017857601261017a565b805b60ff1660a05250506001600160a01b03908116608052600160055587166101b45760405163e6c4247b60e01b815260040160405180910390fd5b6001600160a01b0386166101db5760405163e6c4247b60e01b815260040160405180910390fd5b600680546001600160a01b03808b166001600160a01b031992831617909255600780548a841690831617905560088054928916929091168217905560408051630691d8b960e31b8152905163348ec5c8916004808201926020929091908290030181865afa15801561024f573d5f5f3e3d5ffd5b505050506040513d601f19601f820116820180604052508101906102739190610bda565b60095f6101000a8154816001600160a01b0302191690836001600160a01b03160217905550856001600160a01b0316633a0dad8e6040518163ffffffff1660e01b8152600401602060405180830381865afa1580156102d4573d5f5f3e3d5ffd5b505050506040513d601f19601f820116820180604052508101906102f89190610bda565b600a5f6101000a8154816001600160a01b0302191690836001600160a01b03160217905550856001600160a01b031663d1717c7d6040518163ffffffff1660e01b8152600401602060405180830381865afa158015610359573d5f5f3e3d5ffd5b505050506040513d601f19601f8201168201806040525081019061037d9190610d33565b600a60146101000a81548160ff021916908360ff1602179055505f600d819055505f6014819055505f6015819055505f866001600160a01b0316637158da7c6040518163ffffffff1660e01b8152600401602060405180830381865afa1580156103e9573d5f5f3e3d5ffd5b505050506040513d601f19601f8201168201806040525081019061040d9190610bda565b6001600160a01b031663313ce5676040518163ffffffff1660e01b8152600401602060405180830381865afa158015610448573d5f5f3e3d5ffd5b505050506040513d601f19601f8201168201806040525081019061046c9190610d33565b9050601260ff8216111561049357604051631c03248960e11b815260040160405180910390fd5b600460ff851611156104b8576040516317dbc4cb60e21b815260040160405180910390fd5b610bb861ffff841611156104df576040516317dbc4cb60e21b815260040160405180910390fd5b61012c61ffff83161115610506576040516317dbc4cb60e21b815260040160405180910390fd5b8360ff16600481111561051b5761051b610d4c565b6017805460ff1916600183600481111561053757610537610d4c565b02179055506017805461ffff84811663010000000264ffff00000019918716610100029190911664ffffffff00199092169190911717905561057a81600a610e57565b601855610585610794565b50505050505050505061059d5f61086960201b60201c565b601e556105aa6001610884565b601f55600a80546105ce916105c991600160a01b900460ff1690610e57565b610869565b602055601e546105dd9061089f565b50601f546105ea9061089f565b506020546105f79061089f565b505050505050505050610f88565b80515f51602061533b5f395f51905f5280546001600160a01b03199081166001600160a01b039384161790915560208301515f51602061531b5f395f51905f528054831691841691909117905560408301517f9e7b61f58c47dc699ac88507c4f5bb9f121c03808c5676a8078fe583e46497028054831691841691909117905560608301517f9e7b61f58c47dc699ac88507c4f5bb9f121c03808c5676a8078fe583e46497038054909216921691909117905550565b50565b60408051600481526024810182526020810180516001600160e01b031663313ce56760e01b17905290515f918291829182916001600160a01b0387169161070491610e65565b5f60405180830381855afa9150503d805f811461073c576040519150601f19603f3d011682016040523d82523d5f602084013e610741565b606091505b509150915081801561075557506020815110155b15610788575f8180602001905181019061076f9190610e7b565b905060ff8111610786576001969095509350505050565b505b505f9485945092505050565b60085460408051636c366a2760e11b815290515f926001600160a01b03169163d86cd44e91600480830192869291908290030181865afa1580156107da573d5f5f3e3d5ffd5b505050506040513d5f823e601f3d908101601f191682016040526108019190810190610e92565b90505f5b8151811015610865575f61083c83838151811061082457610824610f44565b6020026020010151600b6108ae60201b90919060201c565b90508061085c57604051630ea075bf60e21b815260040160405180910390fd5b50600101610805565b5050565b5f61087e6001600160801b03831660066108c9565b92915050565b5f61087e82610893575f610896565b60015b60ff165f6108c9565b5f6108aa8230610960565b5090565b5f6108c2836001600160a01b0384166109d6565b9392505050565b5f51602061531b5f395f51905f5254604051639cd07acb60e01b81525f915f51602061533b5f395f51905f52916001600160a01b0390911690639cd07acb906109189087908790600401610f58565b6020604051808303815f875af1158015610934573d5f5f3e3d5ffd5b505050506040513d601f19601f820116820180604052508101906109589190610e7b565b949350505050565b5f5f51602061533b5f395f51905f528054604051635ca4b5b160e11b8152600481018690526001600160a01b03858116602483015292935091169063b9496b62906044015f604051808303815f87803b1580156109bb575f5ffd5b505af11580156109cd573d5f5f3e3d5ffd5b50505050505050565b5f818152600183016020526040812054610a1b57508154600181810184555f84815260208082209093018490558454848252828601909352604090209190915561087e565b505f61087e565b6001600160a01b03811681146106bb575f5ffd5b634e487b7160e01b5f52604160045260245ffd5b604051601f8201601f191681016001600160401b0381118282101715610a7257610a72610a36565b604052919050565b5f82601f830112610a89575f5ffd5b81516001600160401b03811115610aa257610aa2610a36565b610ab5601f8201601f1916602001610a4a565b818152846020838601011115610ac9575f5ffd5b8160208501602083015e5f918101602001919091529392505050565b805160ff81168114610af5575f5ffd5b919050565b805161ffff81168114610af5575f5ffd5b5f5f5f5f5f5f5f5f610100898b031215610b23575f5ffd5b8851610b2e81610a22565b60208a0151909850610b3f81610a22565b60408a0151909750610b5081610a22565b60608a01519096506001600160401b03811115610b6b575f5ffd5b610b778b828c01610a7a565b60808b015190965090506001600160401b03811115610b94575f5ffd5b610ba08b828c01610a7a565b945050610baf60a08a01610ae5565b9250610bbd60c08a01610afa565b9150610bcb60e08a01610afa565b90509295985092959890939650565b5f60208284031215610bea575f5ffd5b81516108c281610a22565b600181811c90821680610c0957607f821691505b602082108103610c2757634e487b7160e01b5f52602260045260245ffd5b50919050565b601f821115610c7457805f5260205f20601f840160051c81016020851015610c525750805b601f840160051c820191505b81811015610c71575f8155600101610c5e565b50505b505050565b81516001600160401b03811115610c9257610c92610a36565b610ca681610ca08454610bf5565b84610c2d565b6020601f821160018114610cd8575f8315610cc15750848201515b5f19600385901b1c1916600184901b178455610c71565b5f84815260208120601f198516915b82811015610d075787850151825560209485019460019092019101610ce7565b5084821015610d2457868401515f19600387901b60f8161c191681555b50505050600190811b01905550565b5f60208284031215610d43575f5ffd5b6108c282610ae5565b634e487b7160e01b5f52602160045260245ffd5b634e487b7160e01b5f52601160045260245ffd5b6001815b6001841115610daf57808504811115610d9357610d93610d60565b6001841615610da157908102905b60019390931c928002610d78565b935093915050565b5f82610dc55750600161087e565b81610dd157505f61087e565b8160018114610de75760028114610df157610e0d565b600191505061087e565b60ff841115610e0257610e02610d60565b50506001821b61087e565b5060208310610133831016604e8410600b8410161715610e30575081810a61087e565b610e3c5f198484610d74565b805f1904821115610e4f57610e4f610d60565b029392505050565b5f6108c260ff841683610db7565b5f82518060208501845e5f920191825250919050565b5f60208284031215610e8b575f5ffd5b5051919050565b5f60208284031215610ea2575f5ffd5b81516001600160401b03811115610eb7575f5ffd5b8201601f81018413610ec7575f5ffd5b80516001600160401b03811115610ee057610ee0610a36565b8060051b610ef060208201610a4a565b91825260208184018101929081019087841115610f0b575f5ffd5b6020850194505b83851015610f395784519250610f2783610a22565b82825260209485019490910190610f12565b979650505050505050565b634e487b7160e01b5f52603260045260245ffd5b8281526040810160548310610f7b57634e487b7160e01b5f52602160045260245ffd5b8260208301529392505050565b60805160a051614375610fa65f395f50505f610e0301526143755ff3fe608060405234801561000f575f5ffd5b50600436106102d7575f3560e01c806395d89b411161018157806395d89b411461051c57806397ee1144146105245780639908840c1461055a5780639adb298114610563578063a68a526714610576578063a9059cbb14610589578063aa2f892d1461059c578063acdb3d51146105af578063b3d7f6b914610352578063b460af94146105b8578063b6eba653146105c6578063ba087652146105b8578063bdca9165146105dc578063c0b568e1146105e5578063c392e58c146105f8578063c3f0d30e1461060b578063c63d75b61461045d578063c6e6f5921461061e578063ce96cb7714610631578063d1717c7d14610644578063d3d0345814610658578063d853365f14610660578063d905777e14610668578063da1f12ab1461067b578063dceb7e2814610683578063dd62ed3e14610690578063e51a85f6146106a3578063e5e97193146106b6578063e66f53b7146106c9578063ef8b30f714610352578063f64c6f32146106dc575f5ffd5b806301e1d114146102db57806303d44854146102f257806306fdde031461030757806307a2d13a1461031c578063095ea7b31461032f5780630a28a477146103525780630a605c6d146103655780630c6a62dd1461036d5780630d1e6667146103805780630df571f7146103935780630fdca94f146103a657806318160ddd146103b957806318c21949146103c15780631f52692b146103d457806323b872dd146103f4578063313ce56714610407578063348ec5c81461041c57806338d52e0f1461042f5780633a0dad8e146104375780633ab6d27c1461044a578063402d267d1461045d578063493a6e21146104715780634cdad506146103525780634e85b135146104845780636e553f651461049957806370a08231146104a75780637847ea53146104ba57806379502c55146104da57806380ceebfe146104ed5780638f5c94651461050057806394bf804d14610499575b5f5ffd5b600d545b6040519081526020015b60405180910390f35b61030561030036600461397b565b6106e4565b005b61030f61081e565b6040516102e99190613a18565b6102df61032a366004613a2a565b6108ae565b61034261033d366004613a5c565b6108bf565b60405190151581526020016102e9565b6102df610360366004613a2a565b6108d6565b6015546102df565b61030561037b366004613a84565b6108f0565b61030561038e366004613a2a565b61098b565b6103056103a1366004613a9d565b610bfc565b6103056103b4366004613afa565b610c77565b6002546102df565b6103056103cf366004613a2a565b610d0d565b6006546103e7906001600160a01b031681565b6040516102e99190613b71565b610342610402366004613b85565b610ddc565b60125b60405160ff90911681526020016102e9565b6009546103e7906001600160a01b031681565b6103e7610e01565b600a546103e7906001600160a01b031681565b610305610458366004613bdc565b610e25565b6102df61046b366004613a84565b505f1990565b61030561047f366004613a2a565b610ff2565b61048c6112a1565b6040516102e99190613c67565b6102df610360366004613c79565b6102df6104b5366004613a84565b6112b2565b6104c56301e1338081565b60405163ffffffff90911681526020016102e9565b6008546103e7906001600160a01b031681565b6102df6104fb366004613ca3565b6112cc565b61050961271081565b60405161ffff90911681526020016102e9565b61030f61130c565b60175460185461054a9160ff81169161ffff610100830481169263010000009004169084565b6040516102e99493929190613ce5565b61050961012c81565b610305610571366004613d57565b61131b565b6102df610584366004613ca3565b6114ed565b610342610597366004613a5c565b61151c565b6103056105aa366004613a2a565b611529565b6102df60165481565b6102df610360366004613d9e565b6105ce611702565b6040516102e9929190613dd7565b610509610bb881565b6103056105f3366004613a2a565b611883565b610305610606366004613e2f565b611a3d565b610305610619366004613a2a565b611ead565b6102df61062c366004613a2a565b6120a1565b6102df61063f366004613a84565b6120ac565b600a5461040a90600160a01b900460ff1681565b6105ce6120bf565b61040a601281565b6102df610676366004613a84565b612223565b6127116102df565b6021546103429060ff1681565b6102df61069e366004613e99565b61222d565b6102df6106b1366004613a2a565b612257565b6103056106c4366004613a2a565b612290565b6007546103e7906001600160a01b031681565b6014546102df565b6006546001600160a01b0316331461070f57604051631a27eac360e11b815260040160405180910390fd5b610719600b6124d2565b5f5b81811015610819575f83838381811061073657610736613ec1565b905060200201602081019061074b9190613a84565b600854604051633af32abf60e01b81529192506001600160a01b031690633af32abf9061077c908490600401613b71565b602060405180830381865afa158015610797573d5f5f3e3d5ffd5b505050506040513d601f19601f820116820180604052508101906107bb9190613ee2565b6107e3578060405163751dff9760e11b81526004016107da9190613b71565b60405180910390fd5b5f6107ef600b836124db565b90508061080f57604051630ea075bf60e21b815260040160405180910390fd5b505060010161071b565b505050565b60606003805461082d90613efd565b80601f016020809104026020016040519081016040528092919081815260200182805461085990613efd565b80156108a45780601f1061087b576101008083540402835291602001916108a4565b820191905f5260205f20905b81548152906001019060200180831161088757829003601f168201915b5050505050905090565b5f6108b9825f6124ef565b92915050565b5f336108cc818585612530565b5060019392505050565b5f60405163125ad87760e31b815260040160405180910390fd5b6006546001600160a01b0316331461091b57604051631a27eac360e11b815260040160405180910390fd5b6001600160a01b0381166109425760405163e6c4247b60e01b815260040160405180910390fd5b600780546001600160a01b0319166001600160a01b0383169081179091556040517f83293ffeebb677b167941693470018acf300605df266a35e9fdb66f24ff00fe0905f90a250565b61099361253d565b60085f9054906101000a90046001600160a01b03166001600160a01b031663edcf9c1f6040518163ffffffff1660e01b8152600401602060405180830381865afa1580156109e3573d5f5f3e3d5ffd5b505050506040513d601f19601f82011682018060405250810190610a079190613ee2565b610a24576040516312aecd8160e01b815260040160405180910390fd5b805f03610a4d57610a33610e01565b604051636b30633560e01b81526004016107da9190613b71565b5f610a56610e01565b6001600160a01b03166370a08231336040518263ffffffff1660e01b8152600401610a819190613b71565b602060405180830381865afa158015610a9c573d5f5f3e3d5ffd5b505050506040513d601f19601f82011682018060405250810190610ac09190613f35565b905080821115610ae357604051632ca2f52b60e11b815260040160405180910390fd5b5f610aec610e01565b600a546040516323b872dd60e01b81526001600160a01b03928316926323b872dd92610b22923392909116908890600401613f4c565b6020604051808303815f875af1158015610b3e573d5f5f3e3d5ffd5b505050506040513d601f19601f82011682018060405250810190610b629190613ee2565b905080610b82576040516312171d8360e31b815260040160405180910390fd5b5f610b8e600e33612567565b9150610ba9905033610ba08684613f84565b600e919061258d565b508360145f828254610bbb9190613f84565b9091555050604051849033907f55896b30a78fc55b78937f8014dde3f0035e9d37a4f6ac36841fb8b62f7e2b13905f90a3505050610bf96001600555565b50565b6009546001600160a01b03163314610c2757604051631a27eac360e11b815260040160405180910390fd5b8015610c73578060165f828254610c3e9190613f84565b9091555050601654604051829084907f8b8789cf9157fe7b016901e4ed3a5d0971caa8b7c031da0b25638ccf65841b2a905f90a45b5050565b610ce98585858080601f0160208091040260200160405190810160405280939291908181526020018383808284375f9201919091525050604080516020601f890181900481028201810190925287815292508791508690819084018382808284375f920191909152506125a292505050565b610cf583850185613f97565b6021805460ff19169115159190911790555050505050565b6006546001600160a01b03163314610d3857604051631a27eac360e11b815260040160405180910390fd5b805f03610d4757610a33610e01565b601654811115610d6a57604051632ca2f52b60e11b815260040160405180910390fd5b8060165f828254610d7b9190613fb2565b9091555050600a5460405163741fca4b60e01b8152600481018390526001600160a01b039091169063741fca4b906024015f604051808303815f87803b158015610dc3575f5ffd5b505af1158015610dd5573d5f5f3e3d5ffd5b5050505050565b5f33610de985828561260b565b610df4858585612656565b60019150505b9392505050565b7f000000000000000000000000000000000000000000000000000000000000000090565b6006546001600160a01b03163314610e5057604051631a27eac360e11b815260040160405180910390fd5b60085f9054906101000a90046001600160a01b03166001600160a01b031663edcf9c1f6040518163ffffffff1660e01b8152600401602060405180830381865afa158015610ea0573d5f5f3e3d5ffd5b505050506040513d601f19601f82011682018060405250810190610ec49190613ee2565b610ee1576040516312aecd8160e01b815260040160405180910390fd5b600460ff84161115610f06576040516317dbc4cb60e21b815260040160405180910390fd5b610bb861ffff83161115610f2d576040516317dbc4cb60e21b815260040160405180910390fd5b61012c61ffff82161115610f54576040516317dbc4cb60e21b815260040160405180910390fd5b8260ff166004811115610f6957610f69613cd1565b6017805460ff19166001836004811115610f8557610f85613cd1565b02179055506017805464ffffffff00191661010061ffff85811691820264ffff00000019169290921763010000009285169283021790925560405190919060ff8616907fd24f39e523bfa412fa391702710dc62e1c82d87a8e83228a37c42be1b4870f45905f90a4505050565b600a546001600160a01b0316331461101d57604051631a27eac360e11b815260040160405180910390fd5b61102561253d565b5f61103060116126b3565b90505f8163ffffffff166001600160401b0381111561105157611051613fc5565b60405190808252806020026020018201604052801561107a578160200160208202803683370190505b5090505f8263ffffffff166001600160401b0381111561109c5761109c613fc5565b6040519080825280602002602001820160405280156110c5578160200160208202803683370190505b5090505f5b8363ffffffff168163ffffffff16101561115f575f806110f4601163ffffffff808616906126bd16565b9150915081858463ffffffff168151811061111157611111613ec1565b60200260200101906001600160a01b031690816001600160a01b03168152505080848463ffffffff168151811061114a5761114a613ec1565b602090810291909101015250506001016110ca565b505f60158190555b8363ffffffff168163ffffffff161015611293575f838263ffffffff168151811061119457611194613ec1565b602002602001015190505f838363ffffffff16815181106111b7576111b7613ec1565b602002602001015190506111d58260116126cb90919063ffffffff16565b505f6111e282895f6114ed565b90506111ee30836126df565b600a54604051634adfc2e760e01b81526001600160a01b0390911690634adfc2e7906112209086908590600401613fd9565b5f604051808303815f87803b158015611237575f5ffd5b505af1158015611249573d5f5f3e3d5ffd5b505050508181846001600160a01b03167ff279e6a1f5e320cca91135676d9cb6e44ca8a08c0b88342bcdb1144f6511b56860405160405180910390a4505050806001019050611167565b50505050610bf96001600555565b60606112ad600b612713565b905090565b6001600160a01b03165f9081526020819052604090205490565b5f6113046112d861271f565b6112e390600a6140d5565b6002546112f09190613f84565b6112fb856001613f84565b8691908561279b565b949350505050565b60606004805461082d90613efd565b6009546001600160a01b0316331461134657604051631a27eac360e11b815260040160405180910390fd5b601a545f5b8161ffff168161ffff1610156113a457601e5460195f601a8461ffff168154811061137857611378613ec1565b5f9182526020808320909101546001600160a01b0316835282019290925260400190205560010161134b565b506113b0601a5f61390b565b825f5b8161ffff168161ffff1610156114905785858261ffff168181106113d9576113d9613ec1565b9050604002016020013560195f88888561ffff168181106113fc576113fc613ec1565b6114129260206040909202019081019150613a84565b6001600160a01b0316815260208101919091526040015f2055601a868661ffff841681811061144357611443613ec1565b6114599260206040909202019081019150613a84565b8154600180820184555f93845260209093200180546001600160a01b0319166001600160a01b0392909216919091179055016113b3565b50600d8390555f6114a860125b61032a90600a6140d5565b6018549091508111156114bb5760188190555b60405184907f5e1ff954b5e5257e9ee5d4cb07059e8f5e69b1aaaf9911e5d8d90a6894de9c21905f90a2505050505050565b5f6113046114fc846001613f84565b61150461271f565b61150f90600a6140d5565b6002546112fb9190613f84565b5f336108cc818585612656565b60085f9054906101000a90046001600160a01b03166001600160a01b031663edcf9c1f6040518163ffffffff1660e01b8152600401602060405180830381865afa158015611579573d5f5f3e3d5ffd5b505050506040513d601f19601f8201168201806040525081019061159d9190613ee2565b6115ba576040516312aecd8160e01b815260040160405180910390fd5b805f036115dc5730604051636b30633560e01b81526004016107da9190613b71565b5f6115e6336112b2565b90508082111561160957604051632ca2f52b60e11b815260040160405180910390fd5b6040516323b872dd60e01b81525f9030906323b872dd9061163290339084908890600401613f4c565b6020604051808303815f875af115801561164e573d5f5f3e3d5ffd5b505050506040513d601f19601f820116820180604052508101906116729190613ee2565b905080611692576040516312171d8360e31b815260040160405180910390fd5b5f61169e601133612567565b91506116b99050336116b08684613f84565b6011919061258d565b508360155f8282546116cb9190613f84565b9091555050604051849033907f222dc200773fe9b45015bf792e8fee37d651e3590c215806a5042404b6d741d2905f90a350505050565b601c54606090819061ffff81166001600160401b0381111561172657611726613fc5565b60405190808252806020026020018201604052801561174f578160200160208202803683370190505b5092508061ffff166001600160401b0381111561176e5761176e613fc5565b604051908082528060200260200182016040528015611797578160200160208202803683370190505b5091505f5b8161ffff168161ffff16101561187d57601c8161ffff16815481106117c3576117c3613ec1565b905f5260205f20015f9054906101000a90046001600160a01b0316848261ffff16815181106117f4576117f4613ec1565b60200260200101906001600160a01b031690816001600160a01b031681525050601b5f601c8361ffff168154811061182e5761182e613ec1565b5f9182526020808320909101546001600160a01b031683528201929092526040019020548351849061ffff841690811061186a5761186a613ec1565b602090810291909101015260010161179c565b50509091565b61188b61253d565b60085f9054906101000a90046001600160a01b03166001600160a01b031663edcf9c1f6040518163ffffffff1660e01b8152600401602060405180830381865afa1580156118db573d5f5f3e3d5ffd5b505050506040513d601f19601f820116820180604052508101906118ff9190613ee2565b61191c576040516312aecd8160e01b815260040160405180910390fd5b805f0361192b57610a33610e01565b5f611937600e33612567565b9150508181101561195b57604051632ca2f52b60e11b815260040160405180910390fd5b600a546040516351edffb160e01b81526001600160a01b03909116906351edffb19061198d9033908690600401613fd9565b5f604051808303815f87803b1580156119a4575f5ffd5b505af11580156119b6573d5f5f3e3d5ffd5b505050505f82826119c79190613fb2565b9050805f036119e1576119db600e336126cb565b506119ef565b6119ed600e338361258d565b505b8260145f828254611a009190613fb2565b9091555050604051839033907f96a9a6886cdf3047a125454218a23d3961fd3a78643123b248a9d106d0ac94fd905f90a35050610bf96001600555565b6007546001600160a01b03163314611a6857604051631a27eac360e11b815260040160405180910390fd5b611a7061253d565b5f839003611a9157604051631121aa8d60e01b815260040160405180910390fd5b6021805460ff19169055601e5483905f61ffff83166001600160401b03811115611abd57611abd613fc5565b604051908082528060200260200182016040528015611ae6578160200160208202803683370190505b5090505f8361ffff166001600160401b03811115611b0657611b06613fc5565b604051908082528060200260200182016040528015611b2f578160200160208202803683370190505b5090505f8461ffff166001600160401b03811115611b4f57611b4f613fc5565b604051908082528060200260200182016040528015611b78578160200160208202803683370190505b5090505f5b8561ffff168161ffff161015611d31575f8a8a8361ffff16818110611ba457611ba4613ec1565b611bba9260206040909202019081019150613a84565b905080838361ffff1681518110611bd357611bd3613ec1565b60200260200101906001600160a01b031690816001600160a01b0316815250505f611c528c8c8561ffff16818110611c0d57611c0d613ec1565b905060400201602001358b8b8080601f0160208091040260200160405190810160405280939291908181526020018383808284375f920191909152506127dd92505050565b9050611c5d816127ea565b506001600160a01b0382165f908152601d602052604090205460ff1615611c9957816040516346bdabe160e01b81526004016107da9190613b71565b6001600160a01b0382165f908152601d60205260409020805460ff1916600117905585518290879061ffff8616908110611cd557611cd5613ec1565b60200260200101906001600160a01b031690816001600160a01b03168152505080858461ffff1681518110611d0c57611d0c613ec1565b602002602001018181525050611d2287826127f9565b96505050806001019050611b7d565b50611d3c8185612827565b5f5b601c5461ffff9081169082161015611d9957601e54601b5f601c8461ffff1681548110611d6d57611d6d613ec1565b5f9182526020808320909101546001600160a01b03168352820192909252604001902055600101611d3e565b50611da5601c5f61390b565b5f5b8561ffff168161ffff161015611e6d575f848261ffff1681518110611dce57611dce613ec1565b60200260200101519050838261ffff1681518110611dee57611dee613ec1565b6020908102919091018101516001600160a01b039092165f818152601b8352604080822094909455601c805460018181019092557f0e4562a10381dec21b205ed72637e6b1b523bdd0e4d4d50af5cd23dd4500a2110180546001600160a01b03191684179055918152601d909252919020805460ff1916905501611da7565b5060405133907f2d47a742b8d7df7c1fc5a9a631b206b364e6cb2722490759f63bb3ab14b132e0905f90a25050505050611ea76001600555565b50505050565b611eb561253d565b60085f9054906101000a90046001600160a01b03166001600160a01b031663edcf9c1f6040518163ffffffff1660e01b8152600401602060405180830381865afa158015611f05573d5f5f3e3d5ffd5b505050506040513d601f19601f82011682018060405250810190611f299190613ee2565b611f46576040516312aecd8160e01b815260040160405180910390fd5b805f03611f685730604051636b30633560e01b81526004016107da9190613b71565b5f611f74601133612567565b91505081811015611f9857604051632ca2f52b60e11b815260040160405180910390fd5b5f611fa38383613fb2565b9050805f03611fbd57611fb76011336126cb565b50611fcb565b611fc96011338361258d565b505b8260155f828254611fdc9190613fb2565b909155505060405163a9059cbb60e01b81525f90309063a9059cbb906120089033908890600401613fd9565b6020604051808303815f875af1158015612024573d5f5f3e3d5ffd5b505050506040513d601f19601f820116820180604052508101906120489190613ee2565b905080612068576040516312171d8360e31b815260040160405180910390fd5b604051849033907f046d3e17087d323298991516e3fdec36fe1204d6bff7fb6e2b8eca77b80a22ad905f90a3505050610bf96001600555565b5f6108b9825f612899565b5f6108b96120b9836112b2565b5f6124ef565b601a54606090819061ffff81166001600160401b038111156120e3576120e3613fc5565b60405190808252806020026020018201604052801561210c578160200160208202803683370190505b5092508061ffff166001600160401b0381111561212b5761212b613fc5565b604051908082528060200260200182016040528015612154578160200160208202803683370190505b5091505f5b8161ffff168161ffff16101561187d575f601a8261ffff168154811061218157612181613ec1565b905f5260205f20015f9054906101000a90046001600160a01b0316905080858361ffff16815181106121b5576121b5613ec1565b60200260200101906001600160a01b031690816001600160a01b03168152505060195f826001600160a01b03166001600160a01b031681526020019081526020015f2054848361ffff168151811061220f5761220f613ec1565b602090810291909101015250600101612159565b5f6108b9826112b2565b6001600160a01b039182165f90815260016020908152604080832093909416825291909152205490565b5f5f612262836128cb565b90505f61226f8285613fb2565b90505f61227b82612995565b90506122878184613f84565b95945050505050565b6009546001600160a01b031633146122bb57604051631a27eac360e11b815260040160405180910390fd5b6122c361253d565b5f6122ce600e6126b3565b90505f8163ffffffff166001600160401b038111156122ef576122ef613fc5565b604051908082528060200260200182016040528015612318578160200160208202803683370190505b5090505f8263ffffffff166001600160401b0381111561233a5761233a613fc5565b604051908082528060200260200182016040528015612363578160200160208202803683370190505b5090505f5b8363ffffffff168163ffffffff1610156123fd575f80612392600e63ffffffff808616906126bd16565b9150915081858463ffffffff16815181106123af576123af613ec1565b60200260200101906001600160a01b031690816001600160a01b03168152505080848463ffffffff16815181106123e8576123e8613ec1565b60209081029190910101525050600101612368565b505f60148190555b8363ffffffff168163ffffffff161015611293575f838263ffffffff168151811061243257612432613ec1565b602002602001015190505f838363ffffffff168151811061245557612455613ec1565b6020026020010151905061247382600e6126cb90919063ffffffff16565b505f61248082895f6112cc565b905061248c8382612a25565b8082846001600160a01b03167f90890809c654f11d6e72a28fa60149770a0d11ec6c92319d6ceb2bb0a4ea1a1560405160405180910390a4505050806001019050612405565b610bf981612a59565b5f610dfa836001600160a01b038416612ab2565b5f610dfa6124fc600d5490565b612507906001613f84565b61250f61271f565b61251a90600a6140d5565b6002546125279190613f84565b8591908561279b565b6108198383836001612af9565b60026005540361256057604051633ee5aeb560e01b815260040160405180910390fd5b6002600555565b5f80808061257e866001600160a01b038716612bcb565b909450925050505b9250929050565b5f611304846001600160a01b03851684612c03565b5f6125ac84612c1f565b90505f6125ba828585612cbb565b9050806125da5760405163cf6c44e960e01b815260040160405180910390fd5b60405185907f1af0453083661051f6e56e5c070792320652e612154bf9af8637bb1e7655b99d905f90a25050505050565b5f612616848461222d565b90505f19811015611ea7578181101561264857828183604051637dc7a0d960e11b81526004016107da939291906140e3565b611ea784848484035f612af9565b6001600160a01b03831661267f575f604051634b637e8f60e11b81526004016107da9190613b71565b6001600160a01b0382166126a8575f60405163ec442f0560e01b81526004016107da9190613b71565b610819838383612d88565b5f6108b982612e9b565b5f80808061257e8686612ea5565b5f610dfa836001600160a01b038416612ece565b6001600160a01b038216612708575f604051634b637e8f60e11b81526004016107da9190613b71565b610c73825f83612d88565b60605f610dfa83612eea565b5f5f612729610e01565b6001600160a01b031663313ce5676040518163ffffffff1660e01b8152600401602060405180830381865afa158015612764573d5f5f3e3d5ffd5b505050506040513d601f19601f820116820180604052508101906127889190614104565b905061279581601261411f565b91505090565b5f6127c86127a883612f43565b80156127c357505f84806127be576127be614138565b868809115b151590565b6127d3868686612f6f565b6122879190613f84565b5f610dfa8383600661301f565b5f6127f58230613109565b5090565b5f8261280b576128085f613176565b92505b8161281c576128195f613176565b91505b610dfa83835f61318b565b61283082613221565b5f61283d82602054613299565b9050612848816127ea565b506040805160018082528183019092525f916020808301908036833701905050905081815f8151811061287d5761287d613ec1565b6020908102919091010152610dd581630fdca94f60e01b6132c7565b5f610dfa6128a561271f565b6128b090600a6140d5565b6002546128bd9190613f84565b600d54612527906001613f84565b6017545f906301000000900461ffff1681036128e857505f919050565b6017545f90612905906301000000900461ffff1684612710612f6f565b9050610dfa60095f9054906101000a90046001600160a01b03166001600160a01b0316634ff0876a6040518163ffffffff1660e01b8152600401602060405180830381865afa15801561295a573d5f5f3e3d5ffd5b505050506040513d601f19601f8201168201806040525081019061297e919061414c565b829063ffffffff908116906301e1338090612f6f16565b6017545f90610100900461ffff1681036129b057505f919050565b5f6129c76129c06012600a6140d5565b845f6114ed565b6017549091505f9081906129dd9060ff166132d3565b91509150818310156129f357505f949350505050565b6017545f90612a0c90610100900461ffff168584612f6f565b9050612a1b8187612710612f6f565b9695505050505050565b6001600160a01b038216612a4e575f60405163ec442f0560e01b81526004016107da9190613b71565b610c735f8383612d88565b5f612a62825490565b90505f5b81811015612aab57826001015f845f018381548110612a8757612a87613ec1565b905f5260205f20015481526020019081526020015f205f9055806001019050612a66565b50505f9055565b5f612abd83836133bd565b612af257508154600181810184555f8481526020808220909301849055845484825282860190935260409020919091556108b9565b505f6108b9565b6001600160a01b038416612b22575f60405163e602df0560e01b81526004016107da9190613b71565b6001600160a01b038316612b4b575f604051634a1406b160e11b81526004016107da9190613b71565b6001600160a01b038085165f9081526001602090815260408083209387168352929052208290558015611ea757826001600160a01b0316846001600160a01b03167f8c5be1e5ebec7d5bd14f71427d1e84f3dd0314c0f7b2291e5b200ac8c7c3b92584604051612bbd91815260200190565b60405180910390a350505050565b5f818152600283016020526040812054819080612bf857612bec85856133d4565b92505f91506125869050565b600192509050612586565b5f828152600284016020526040812082905561130484846133df565b60605f612c2a6133ea565b5f84815260018201602052604081205491925003612c5b5760405163d66ca67560e01b815260040160405180910390fd5b5f83815260018201602090815260409182902080548351818402810184019094528084529091830182828015612cae57602002820191905f5260205f20905b815481526020019060010190808311612c9a575b5050505050915050919050565b5f5f83516020612ccb9190613f84565b612cd6906020613f84565b90505f8482604051602001612cec92919061416f565b60405160208183030381529060405290505f612d0661340e565b60038101546040516378542ead60e01b81529192506001600160a01b0316906378542ead90612d3d908a9086908a906004016141b9565b6020604051808303815f875af1158015612d59573d5f5f3e3d5ffd5b505050506040513d601f19601f82011682018060405250810190612d7d9190613ee2565b979650505050505050565b6001600160a01b038316612db2578060025f828254612da79190613f84565b90915550612e0f9050565b6001600160a01b0383165f9081526020819052604090205481811015612df15783818360405163391434e360e21b81526004016107da939291906140e3565b6001600160a01b0384165f9081526020819052604090209082900390555b6001600160a01b038216612e2b57600280548290039055612e49565b6001600160a01b0382165f9081526020819052604090208054820190555b816001600160a01b0316836001600160a01b03167fddf252ad1be2c89b69c2b068fc378daa952ba7f163c4a11628f55a4df523b3ef83604051612e8e91815260200190565b60405180910390a3505050565b5f6108b982613432565b5f8080612eb2858561343b565b5f81815260029690960160205260409095205494959350505050565b5f8181526002830160205260408120819055610dfa8383613446565b6060815f01805480602002602001604051908101604052809291908181526020018280548015612f3757602002820191905f5260205f20905b815481526020019060010190808311612f23575b50505050509050919050565b5f6002826003811115612f5857612f58613cd1565b612f6291906141f1565b60ff166001149050919050565b5f5f5f612f7c8686613451565b91509150815f03612fa057838181612f9657612f96614138565b0492505050610dfa565b818411612fb757612fb7600385150260111861346d565b5f848688095f868103871696879004966002600389028118808a02820302808a02820302808a02820302808a02820302808a02820302808a02909103029181900381900460010185841190960395909502919093039390930492909217029150509392505050565b5f5f61302961340e565b600181015460405163196d0b9b60e01b81529192506001600160a01b03169063196d0b9b90613062908890339089908990600401614232565b6020604051808303815f875af115801561307e573d5f5f3e3d5ffd5b505050506040513d601f19601f820116820180604052508101906130a29190613f35565b8154604051630f8e573b60e21b81529193506001600160a01b031690633e395cec906130d4908590339060040161426a565b5f604051808303815f87803b1580156130eb575f5ffd5b505af11580156130fd573d5f5f3e3d5ffd5b50505050509392505050565b5f61311261340e565b8054604051635ca4b5b160e11b81529192506001600160a01b03169063b9496b6290613144908690869060040161426a565b5f604051808303815f87803b15801561315b575f5ffd5b505af115801561316d573d5f5f3e3d5ffd5b50505050505050565b5f6108b9826001600160801b0316600661347e565b5f5f821561319e5750600160f81b6131a1565b505f5b5f6131aa61340e565b600181015460405163022f65e760e31b81529192506001600160a01b03169063117b2f38906131e190899089908790600401614281565b6020604051808303815f875af11580156131fd573d5f5f3e3d5ffd5b505050506040513d601f19601f82011682018060405250810190612a1b9190613f35565b5f5b8151811015610c735761325982828151811061324157613241613ec1565b6020026020010151600b6134fd90919063ffffffff16565b6132915781818151811061326f5761326f613ec1565b602002602001015160405163751dff9760e11b81526004016107da9190613b71565b600101613223565b5f826132ab576132a85f613176565b92505b816132bc576132b95f613176565b91505b610dfa83835f613511565b5f610dfa83835f613567565b5f80806132e0601261149d565b90505f8460048111156132f5576132f5613cd1565b03613305578092508291506133b7565b600384600481111561331957613319613cd1565b0361332b5760185492508291506133b7565b600184600481111561333f5761333f613cd1565b036133575761334d81613668565b92508091506133b7565b600284600481111561336b5761336b613cd1565b036133835761337981613668565b92508291506133b7565b600484600481111561339757613397613cd1565b036133b7576018546133b1906133ac83613668565b61378e565b92508291505b50915091565b5f9081526001919091016020526040902054151590565b5f610dfa838361379d565b5f610dfa8383612ab2565b7f878245876662ba28a480c5ea71726db859fb50222b0a3d7cbbc21cfa336faf0090565b7f9e7b61f58c47dc699ac88507c4f5bb9f121c03808c5676a8078fe583e464970090565b5f6108b9825490565b5f610dfa83836137a8565b5f610dfa83836137ce565b5f805f1983850993909202808410938190039390930393915050565b634e487b715f52806020526024601cfd5b5f5f61348861340e565b6001810154604051639cd07acb60e01b81529192506001600160a01b031690639cd07acb906134bd90879087906004016142a1565b6020604051808303815f875af11580156134d9573d5f5f3e3d5ffd5b505050506040513d601f19601f820116820180604052508101906113049190613f35565b5f610dfa836001600160a01b0384166133bd565b5f5f82156135245750600160f81b613527565b505f5b5f61353061340e565b600181015460405163f77f3f1d60e01b81529192506001600160a01b03169063f77f3f1d906131e190899089908790600401614281565b5f5f6135716133ea565b8054925090505f61358061340e565b8054604051637d6e912360e11b81529192506001600160a01b03169063fadd2246906135b09089906004016142b5565b5f604051808303815f87803b1580156135c7575f5ffd5b505af11580156135d9573d5f5f3e3d5ffd5b5050506002820154604051633263b83b60e01b81526001600160a01b039091169150633263b83b9086906136159087908b908b906004016142c7565b5f604051808303818588803b15801561362c575f5ffd5b505af115801561363e573d5f5f3e3d5ffd5b505050505061364d83876138b1565b8154825f61365a836142f8565b919050555050509392505050565b5f5f60085f9054906101000a90046001600160a01b03166001600160a01b031663f3cc69936040518163ffffffff1660e01b8152600401602060405180830381865afa1580156136ba573d5f5f3e3d5ffd5b505050506040513d601f19601f820116820180604052508101906136de9190614310565b61ffff1690505f61377360095f9054906101000a90046001600160a01b03166001600160a01b0316634ff0876a6040518163ffffffff1660e01b8152600401602060405180830381865afa158015613738573d5f5f3e3d5ffd5b505050506040513d601f19601f8201168201806040525081019061375c919061414c565b839063ffffffff908116906301e1338090612f6f16565b905061130461378482612710613f84565b8590612710612f6f565b5f828218828411028218610dfa565b5f610dfa83836133bd565b5f825f0182815481106137bd576137bd613ec1565b905f5260205f200154905092915050565b5f81815260018301602052604081205480156138a8575f6137f0600183613fb2565b85549091505f9061380390600190613fb2565b9050808214613862575f865f01828154811061382157613821613ec1565b905f5260205f200154905080875f01848154811061384157613841613ec1565b5f918252602080832090910192909255918252600188019052604090208390555b85548690806138735761387361432b565b600190038181905f5260205f20015f90559055856001015f8681526020019081526020015f205f9055600193505050506108b9565b5f9150506108b9565b5f6138ba6133ea565b5f848152600182016020526040902054909150156138eb57604051633f06d22b60e01b815260040160405180910390fd5b5f83815260018201602090815260409091208351611ea792850190613926565b5080545f8255905f5260205f2090810190610bf99190613967565b828054828255905f5260205f2090810192821561395f579160200282015b8281111561395f578251825591602001919060010190613944565b506127f59291505b5b808211156127f5575f8155600101613968565b5f5f6020838503121561398c575f5ffd5b82356001600160401b038111156139a1575f5ffd5b8301601f810185136139b1575f5ffd5b80356001600160401b038111156139c6575f5ffd5b8560208260051b84010111156139da575f5ffd5b6020919091019590945092505050565b5f81518084528060208401602086015e5f602082860101526020601f19601f83011685010191505092915050565b602081525f610dfa60208301846139ea565b5f60208284031215613a3a575f5ffd5b5035919050565b80356001600160a01b0381168114613a57575f5ffd5b919050565b5f5f60408385031215613a6d575f5ffd5b613a7683613a41565b946020939093013593505050565b5f60208284031215613a94575f5ffd5b610dfa82613a41565b5f5f60408385031215613aae575f5ffd5b50508035926020909101359150565b5f5f83601f840112613acd575f5ffd5b5081356001600160401b03811115613ae3575f5ffd5b602083019150836020828501011115612586575f5ffd5b5f5f5f5f5f60608688031215613b0e575f5ffd5b8535945060208601356001600160401b03811115613b2a575f5ffd5b613b3688828901613abd565b90955093505060408601356001600160401b03811115613b54575f5ffd5b613b6088828901613abd565b969995985093965092949392505050565b6001600160a01b0391909116815260200190565b5f5f5f60608486031215613b97575f5ffd5b613ba084613a41565b9250613bae60208501613a41565b929592945050506040919091013590565b60ff81168114610bf9575f5ffd5b61ffff81168114610bf9575f5ffd5b5f5f5f60608486031215613bee575f5ffd5b8335613bf981613bbf565b92506020840135613c0981613bcd565b91506040840135613c1981613bcd565b809150509250925092565b5f8151808452602084019350602083015f5b82811015613c5d5781516001600160a01b0316865260209586019590910190600101613c36565b5093949350505050565b602081525f610dfa6020830184613c24565b5f5f60408385031215613c8a575f5ffd5b82359150613c9a60208401613a41565b90509250929050565b5f5f5f60608486031215613cb5575f5ffd5b8335925060208401359150604084013560048110613c19575f5ffd5b634e487b7160e01b5f52602160045260245ffd5b6080810160058610613cf957613cf9613cd1565b94815261ffff93841660208201529190921660408201526060015290565b5f5f83601f840112613d27575f5ffd5b5081356001600160401b03811115613d3d575f5ffd5b6020830191508360208260061b8501011115612586575f5ffd5b5f5f5f60408486031215613d69575f5ffd5b83356001600160401b03811115613d7e575f5ffd5b613d8a86828701613d17565b909790965060209590950135949350505050565b5f5f5f60608486031215613db0575f5ffd5b83359250613dc060208501613a41565b9150613dce60408501613a41565b90509250925092565b604081525f613de96040830185613c24565b82810360208401528084518083526020830191506020860192505f5b81811015613e23578351835260209384019390920191600101613e05565b50909695505050505050565b5f5f5f5f60408587031215613e42575f5ffd5b84356001600160401b03811115613e57575f5ffd5b613e6387828801613d17565b90955093505060208501356001600160401b03811115613e81575f5ffd5b613e8d87828801613abd565b95989497509550505050565b5f5f60408385031215613eaa575f5ffd5b613eb383613a41565b9150613c9a60208401613a41565b634e487b7160e01b5f52603260045260245ffd5b8015158114610bf9575f5ffd5b5f60208284031215613ef2575f5ffd5b8151610dfa81613ed5565b600181811c90821680613f1157607f821691505b602082108103613f2f57634e487b7160e01b5f52602260045260245ffd5b50919050565b5f60208284031215613f45575f5ffd5b5051919050565b6001600160a01b039384168152919092166020820152604081019190915260600190565b634e487b7160e01b5f52601160045260245ffd5b808201808211156108b9576108b9613f70565b5f60208284031215613fa7575f5ffd5b8135610dfa81613ed5565b818103818111156108b9576108b9613f70565b634e487b7160e01b5f52604160045260245ffd5b6001600160a01b03929092168252602082015260400190565b6001815b600184111561402d5780850481111561401157614011613f70565b600184161561401f57908102905b60019390931c928002613ff6565b935093915050565b5f82614043575060016108b9565b8161404f57505f6108b9565b8160018114614065576002811461406f5761408b565b60019150506108b9565b60ff84111561408057614080613f70565b50506001821b6108b9565b5060208310610133831016604e8410600b84101617156140ae575081810a6108b9565b6140ba5f198484613ff2565b805f19048211156140cd576140cd613f70565b029392505050565b5f610dfa60ff841683614035565b6001600160a01b039390931683526020830191909152604082015260600190565b5f60208284031215614114575f5ffd5b8151610dfa81613bbf565b60ff82811682821603908111156108b9576108b9613f70565b634e487b7160e01b5f52601260045260245ffd5b5f6020828403121561415c575f5ffd5b815163ffffffff81168114610dfa575f5ffd5b5f83518060208601845e9190910191825250602001919050565b5f8151808452602084019350602083015f5b82811015613c5d57815186526020958601959091019060010161419b565b606081525f6141cb6060830186614189565b82810360208401526141dd81866139ea565b90508281036040840152612a1b81856139ea565b5f60ff83168061420f57634e487b7160e01b5f52601260045260245ffd5b8060ff84160691505092915050565b6054811061422e5761422e613cd1565b9052565b8481526001600160a01b03841660208201526080604082018190525f9061425b908301856139ea565b9050612287606083018461421e565b9182526001600160a01b0316602082015260400190565b92835260208301919091526001600160f81b031916604082015260600190565b82815260408101610dfa602083018461421e565b602081525f610dfa6020830184614189565b838152606060208201525f6142df6060830185614189565b905063ffffffff60e01b83166040830152949350505050565b5f6001820161430957614309613f70565b5060010190565b5f60208284031215614320575f5ffd5b8151610dfa81613bcd565b634e487b7160e01b5f52603160045260245ffdfea2646970667358221220ad557c0b4eba7a9bf90fb36bc5379994ae622fac312896e54f14c2ac81cd5dac64736f6c634300081c00339e7b61f58c47dc699ac88507c4f5bb9f121c03808c5676a8078fe583e46497019e7b61f58c47dc699ac88507c4f5bb9f121c03808c5676a8078fe583e4649700",
  "linkReferences": {},
  "deployedLinkReferences": {}
}