{
  "_format": "hh-sol-artifact-1",
  "contractName": "OrionConfig",
  "sourceName": "contracts/OrionConfig.sol",
  "abi": [
    {
      "inputs": [
        {
          "internalType": "address",
          "name": "initialOwner",
          "type": "address"
        },
        {
          "internalType": "address",
          "name": "underlyingAsset_",
          "type": "address"
        }
      ],
      "stateMutability": "nonpayable",
      "type": "constructor"
    },
    {
      "inputs": [],
      "name": "AlreadyRegistered",
      "type": "error"
    },
    {
      "inputs": [
        {
          "internalType": "address",
          "name": "owner",
          "type": "address"
        }
      ],
      "name": "OwnableInvalidOwner",
      "type": "error"
    },
    {
      "inputs": [
        {
          "internalType": "address",
          "name": "account",
          "type": "address"
        }
      ],
      "name": "OwnableUnauthorizedAccount",
      "type": "error"
    },
    {
      "inputs": [],
      "name": "SystemNotIdle",
      "type": "error"
    },
    {
      "inputs": [
        {
          "internalType": "address",
          "name": "token",
          "type": "address"
        }
      ],
      "name": "TokenNotWhitelisted",
      "type": "error"
    },
    {
      "inputs": [],
      "name": "UnauthorizedAccess",
      "type": "error"
    },
    {
      "inputs": [],
      "name": "ZeroAddress",
      "type": "error"
    },
    {
      "anonymous": false,
      "inputs": [
        {
          "indexed": true,
          "internalType": "address",
          "name": "vault",
          "type": "address"
        }
      ],
      "name": "OrionVaultAdded",
      "type": "event"
    },
    {
      "anonymous": false,
      "inputs": [
        {
          "indexed": true,
          "internalType": "address",
          "name": "vault",
          "type": "address"
        }
      ],
      "name": "OrionVaultRemoved",
      "type": "event"
    },
    {
      "anonymous": false,
      "inputs": [
        {
          "indexed": true,
          "internalType": "address",
          "name": "previousOwner",
          "type": "address"
        },
        {
          "indexed": true,
          "internalType": "address",
          "name": "newOwner",
          "type": "address"
        }
      ],
      "name": "OwnershipTransferred",
      "type": "event"
    },
    {
      "anonymous": false,
      "inputs": [
        {
          "indexed": true,
          "internalType": "uint16",
          "name": "riskFreeRate",
          "type": "uint16"
        }
      ],
      "name": "RiskFreeRateUpdated",
      "type": "event"
    },
    {
      "anonymous": false,
      "inputs": [
        {
          "indexed": true,
          "internalType": "address",
          "name": "asset",
          "type": "address"
        }
      ],
      "name": "WhitelistedAssetAdded",
      "type": "event"
    },
    {
      "anonymous": false,
      "inputs": [
        {
          "indexed": true,
          "internalType": "address",
          "name": "asset",
          "type": "address"
        }
      ],
      "name": "WhitelistedAssetRemoved",
      "type": "event"
    },
    {
      "inputs": [
        {
          "internalType": "address",
          "name": "vault",
          "type": "address"
        },
        {
          "internalType": "enum EventsLib.VaultType",
          "name": "vaultType",
          "type": "uint8"
        }
      ],
      "name": "addOrionVault",
      "outputs": [],
      "stateMutability": "nonpayable",
      "type": "function"
    },
    {
      "inputs": [
        {
          "internalType": "address",
          "name": "asset",
          "type": "address"
        },
        {
          "internalType": "address",
          "name": "priceAdapter",
          "type": "address"
        },
        {
          "internalType": "address",
          "name": "executionAdapter",
          "type": "address"
        }
      ],
      "name": "addWhitelistedAsset",
      "outputs": [],
      "stateMutability": "nonpayable",
      "type": "function"
    },
    {
      "inputs": [],
      "name": "curatorIntentDecimals",
      "outputs": [
        {
          "internalType": "uint8",
          "name": "",
          "type": "uint8"
        }
      ],
      "stateMutability": "view",
      "type": "function"
    },
    {
      "inputs": [],
      "name": "encryptedVaultFactory",
      "outputs": [
        {
          "internalType": "address",
          "name": "",
          "type": "address"
        }
      ],
      "stateMutability": "view",
      "type": "function"
    },
    {
      "inputs": [
        {
          "internalType": "enum EventsLib.VaultType",
          "name": "vaultType",
          "type": "uint8"
        }
      ],
      "name": "getAllOrionVaults",
      "outputs": [
        {
          "internalType": "address[]",
          "name": "",
          "type": "address[]"
        }
      ],
      "stateMutability": "view",
      "type": "function"
    },
    {
      "inputs": [],
      "name": "getAllWhitelistedAssets",
      "outputs": [
        {
          "internalType": "address[]",
          "name": "assets",
          "type": "address[]"
        }
      ],
      "stateMutability": "view",
      "type": "function"
    },
    {
      "inputs": [
        {
          "internalType": "address",
          "name": "token",
          "type": "address"
        }
      ],
      "name": "getTokenDecimals",
      "outputs": [
        {
          "internalType": "uint8",
          "name": "",
          "type": "uint8"
        }
      ],
      "stateMutability": "view",
      "type": "function"
    },
    {
      "inputs": [],
      "name": "internalStatesOrchestrator",
      "outputs": [
        {
          "internalType": "address",
          "name": "",
          "type": "address"
        }
      ],
      "stateMutability": "view",
      "type": "function"
    },
    {
      "inputs": [
        {
          "internalType": "address",
          "name": "vault",
          "type": "address"
        }
      ],
      "name": "isOrionVault",
      "outputs": [
        {
          "internalType": "bool",
          "name": "",
          "type": "bool"
        }
      ],
      "stateMutability": "view",
      "type": "function"
    },
    {
      "inputs": [],
      "name": "isSystemIdle",
      "outputs": [
        {
          "internalType": "bool",
          "name": "",
          "type": "bool"
        }
      ],
      "stateMutability": "view",
      "type": "function"
    },
    {
      "inputs": [
        {
          "internalType": "address",
          "name": "asset",
          "type": "address"
        }
      ],
      "name": "isWhitelisted",
      "outputs": [
        {
          "internalType": "bool",
          "name": "",
          "type": "bool"
        }
      ],
      "stateMutability": "view",
      "type": "function"
    },
    {
      "inputs": [],
      "name": "liquidityOrchestrator",
      "outputs": [
        {
          "internalType": "address",
          "name": "",
          "type": "address"
        }
      ],
      "stateMutability": "view",
      "type": "function"
    },
    {
      "inputs": [],
      "name": "owner",
      "outputs": [
        {
          "internalType": "address",
          "name": "",
          "type": "address"
        }
      ],
      "stateMutability": "view",
      "type": "function"
    },
    {
      "inputs": [],
      "name": "priceAdapterDecimals",
      "outputs": [
        {
          "internalType": "uint8",
          "name": "",
          "type": "uint8"
        }
      ],
      "stateMutability": "view",
      "type": "function"
    },
    {
      "inputs": [],
      "name": "priceAdapterRegistry",
      "outputs": [
        {
          "internalType": "address",
          "name": "",
          "type": "address"
        }
      ],
      "stateMutability": "view",
      "type": "function"
    },
    {
      "inputs": [
        {
          "internalType": "address",
          "name": "vault",
          "type": "address"
        },
        {
          "internalType": "enum EventsLib.VaultType",
          "name": "vaultType",
          "type": "uint8"
        }
      ],
      "name": "removeOrionVault",
      "outputs": [],
      "stateMutability": "nonpayable",
      "type": "function"
    },
    {
      "inputs": [
        {
          "internalType": "address",
          "name": "asset",
          "type": "address"
        }
      ],
      "name": "removeWhitelistedAsset",
      "outputs": [],
      "stateMutability": "nonpayable",
      "type": "function"
    },
    {
      "inputs": [],
      "name": "renounceOwnership",
      "outputs": [],
      "stateMutability": "nonpayable",
      "type": "function"
    },
    {
      "inputs": [],
      "name": "riskFreeRate",
      "outputs": [
        {
          "internalType": "uint16",
          "name": "",
          "type": "uint16"
        }
      ],
      "stateMutability": "view",
      "type": "function"
    },
    {
      "inputs": [
        {
          "internalType": "address",
          "name": "orchestrator",
          "type": "address"
        }
      ],
      "name": "setInternalStatesOrchestrator",
      "outputs": [],
      "stateMutability": "nonpayable",
      "type": "function"
    },
    {
      "inputs": [
        {
          "internalType": "address",
          "name": "orchestrator",
          "type": "address"
        }
      ],
      "name": "setLiquidityOrchestrator",
      "outputs": [],
      "stateMutability": "nonpayable",
      "type": "function"
    },
    {
      "inputs": [
        {
          "internalType": "address",
          "name": "registry",
          "type": "address"
        }
      ],
      "name": "setPriceAdapterRegistry",
      "outputs": [],
      "stateMutability": "nonpayable",
      "type": "function"
    },
    {
      "inputs": [
        {
          "internalType": "uint16",
          "name": "_riskFreeRate",
          "type": "uint16"
        }
      ],
      "name": "setProtocolRiskFreeRate",
      "outputs": [],
      "stateMutability": "nonpayable",
      "type": "function"
    },
    {
      "inputs": [
        {
          "internalType": "address",
          "name": "transparentFactory",
          "type": "address"
        },
        {
          "internalType": "address",
          "name": "encryptedFactory",
          "type": "address"
        }
      ],
      "name": "setVaultFactories",
      "outputs": [],
      "stateMutability": "nonpayable",
      "type": "function"
    },
    {
      "inputs": [
        {
          "internalType": "address",
          "name": "",
          "type": "address"
        }
      ],
      "name": "tokenDecimals",
      "outputs": [
        {
          "internalType": "uint8",
          "name": "",
          "type": "uint8"
        }
      ],
      "stateMutability": "view",
      "type": "function"
    },
    {
      "inputs": [
        {
          "internalType": "address",
          "name": "newOwner",
          "type": "address"
        }
      ],
      "name": "transferOwnership",
      "outputs": [],
      "stateMutability": "nonpayable",
      "type": "function"
    },
    {
      "inputs": [],
      "name": "transparentVaultFactory",
      "outputs": [
        {
          "internalType": "address",
          "name": "",
          "type": "address"
        }
      ],
      "stateMutability": "view",
      "type": "function"
    },
    {
      "inputs": [],
      "name": "underlyingAsset",
      "outputs": [
        {
          "internalType": "contract IERC20",
          "name": "",
          "type": "address"
        }
      ],
      "stateMutability": "view",
      "type": "function"
    },
    {
      "inputs": [],
      "name": "whitelistedAssetsLength",
      "outputs": [
        {
          "internalType": "uint16",
          "name": "",
          "type": "uint16"
        }
      ],
      "stateMutability": "view",
      "type": "function"
    }
  ],
  "bytecode": "0x608060405234801561000f575f5ffd5b5060405161167538038061167583398101604081905261002e9161025f565b816001600160a01b03811661005c57604051631e4fbdf760e01b81525f600482015260240160405180910390fd5b6100658161018c565b506001600160a01b03811661008d5760405163d92e233d60e01b815260040160405180910390fd5b600180546001600160a01b0319166001600160a01b0383169081179091556006805461ffff60a01b1916610e0960a01b1790556040805163313ce56760e01b8152905163313ce567916004808201926020929091908290030181865afa1580156100f9573d5f5f3e3d5ffd5b505050506040513d601f19601f8201168201806040525081019061011d9190610290565b6001600160a01b0382165f908152600960205260409020805460ff191660ff929092169190911790556101516007826101db565b506040516001600160a01b038216907fdcbd8d9d0373041250f6c25b6b7aeccb3e9ff291e510ef85bb9f8ac09ceb6f64905f90a250506102b7565b5f80546001600160a01b038381166001600160a01b0319831681178455604051919092169283917f8be0079c531659141344cd1fd0a4f28419497f9722a3daafe3b4186f6b6457e09190a35050565b5f6101ef836001600160a01b0384166101f8565b90505b92915050565b5f81815260018301602052604081205461023d57508154600181810184555f8481526020808220909301849055845484825282860190935260409020919091556101f2565b505f6101f2565b80516001600160a01b038116811461025a575f5ffd5b919050565b5f5f60408385031215610270575f5ffd5b61027983610244565b915061028760208401610244565b90509250929050565b5f602082840312156102a0575f5ffd5b815160ff811681146102b0575f5ffd5b9392505050565b6113b1806102c45f395ff3fe608060405234801561000f575f5ffd5b506004361061015d575f3560e01c8063015df993146101615780630a8b78c71461018a5780631dbc3c041461019f5780632095b01e146101b257806323a06a1c146101c5578063348ec5c8146101d85780633a0dad8e146101eb5780633af32abf146101fe578063567ba713146102215780635f2483681461024757806366e87e7f14610262578063715018a6146102755780637158da7c1461027d578063785c7cf6146102905780637a0cb784146102bb578063849ede23146102ce5780638da5cb5b146102e15780638ee573ac146102e957806391a848f31461030b578063a51b8d5a1461031e578063b6dfcd8b14610331578063c30dd72714610344578063d1717c7d14610357578063d86cd44e1461036b578063e0876b4414610380578063ed04f21814610393578063edcf9c1f146103a6578063f2fde38b146103ae578063f3cc6993146103c1575b5f5ffd5b600654610174906001600160a01b031681565b6040516101819190611122565b60405180910390f35b61019d610198366004611151565b6103d6565b005b61019d6101ad366004611178565b610451565b61019d6101c0366004611151565b61050e565b61019d6101d33660046111a9565b610589565b600254610174906001600160a01b031681565b600354610174906001600160a01b031681565b61021161020c366004611151565b61075c565b6040519015158152602001610181565b60065461023590600160a81b900460ff1681565b60405160ff9091168152602001610181565b61024f61076e565b60405161ffff9091168152602001610181565b61019d6102703660046111e9565b61077e565b61019d6107fb565b600154610174906001600160a01b031681565b61023561029e366004611151565b6001600160a01b03165f9081526009602052604090205460ff1690565b61019d6102c9366004611178565b61080e565b600454610174906001600160a01b031681565b610174610909565b6102356102f7366004611151565b60096020525f908152604090205460ff1681565b600554610174906001600160a01b031681565b61019d61032c36600461120a565b610917565b61019d61033f366004611151565b610a01565b61019d610352366004611151565b610b6e565b60065461023590600160a01b900460ff1681565b610373610be9565b6040516101819190611232565b61021161038e366004611151565b610c9c565b6103736103a136600461127d565b610cb9565b610211610d95565b61019d6103bc366004611151565b610ea6565b60065461024f90600160b01b900461ffff1681565b6103de610ee3565b6001600160a01b0381166104055760405163d92e233d60e01b815260040160405180910390fd5b6002546001600160a01b03161561042f57604051630ea075bf60e21b815260040160405180910390fd5b600280546001600160a01b0319166001600160a01b0392909216919091179055565b610459610ee3565b610461610d95565b61047e576040516312aecd8160e01b815260040160405180910390fd5b5f600182600181111561049357610493611296565b036104aa576104a3600c84610f15565b90506104b8565b6104b5600a84610f15565b90505b806104d657604051631a27eac360e11b815260040160405180910390fd5b6040516001600160a01b038416907fe47da341e0fc63816c1254f1c35425f69460f49342668d11c984ea56762b00d4905f90a2505050565b610516610ee3565b6001600160a01b03811661053d5760405163d92e233d60e01b815260040160405180910390fd5b6006546001600160a01b03161561056757604051630ea075bf60e21b815260040160405180910390fd5b600680546001600160a01b0319166001600160a01b0392909216919091179055565b610591610ee3565b610599610d95565b6105b6576040516312aecd8160e01b815260040160405180910390fd5b5f6105c2600785610f30565b9050806105e257604051630ea075bf60e21b815260040160405180910390fd5b836001600160a01b031663313ce5676040518163ffffffff1660e01b8152600401602060405180830381865afa15801561061e573d5f5f3e3d5ffd5b505050506040513d601f19601f8201168201806040525081019061064291906112aa565b6001600160a01b038581165f9081526009602052604090819020805460ff191660ff949094169390931790925560065491516302707eef60e51b8152911690634e0fdde09061069790879087906004016112ca565b5f604051808303815f87803b1580156106ae575f5ffd5b505af11580156106c0573d5f5f3e3d5ffd5b50506003546040516359017aa960e01b81526001600160a01b0390911692506359017aa991506106f690879086906004016112ca565b5f604051808303815f87803b15801561070d575f5ffd5b505af115801561071f573d5f5f3e3d5ffd5b50506040516001600160a01b03871692507fdcbd8d9d0373041250f6c25b6b7aeccb3e9ff291e510ef85bb9f8ac09ceb6f6491505f90a250505050565b5f610768600783610f44565b92915050565b5f6107796007610f58565b905090565b610786610ee3565b61078e610d95565b6107ab576040516312aecd8160e01b815260040160405180910390fd5b6006805461ffff60b01b1916600160b01b61ffff84811682029290921792839055604051920416907f6c0e50288cc602be5dd504ce35358e01341e3c4f93e2e02b5a030a59bfdb84e2905f90a250565b610803610ee3565b61080c5f610f61565b565b6004546001600160a01b0316331480159061083457506005546001600160a01b03163314155b1561085257604051631a27eac360e11b815260040160405180910390fd5b6001600160a01b0382166108795760405163d92e233d60e01b815260040160405180910390fd5b5f600182600181111561088e5761088e611296565b036108a55761089e600c84610f30565b90506108b3565b6108b0600a84610f30565b90505b806108d157604051630ea075bf60e21b815260040160405180910390fd5b6040516001600160a01b038416907f9a7094a648c0524f3d62b9167886d30be0e68cf53863fe556edda348f189445a905f90a2505050565b5f546001600160a01b031690565b61091f610ee3565b610927610d95565b610944576040516312aecd8160e01b815260040160405180910390fd5b6001600160a01b03821661096b5760405163d92e233d60e01b815260040160405180910390fd5b6001600160a01b0381166109925760405163d92e233d60e01b815260040160405180910390fd5b6004546001600160a01b03161515806109b557506005546001600160a01b031615155b156109d357604051630ea075bf60e21b815260040160405180910390fd5b600480546001600160a01b039384166001600160a01b03199182161790915560058054929093169116179055565b610a09610ee3565b610a11610d95565b610a2e576040516312aecd8160e01b815260040160405180910390fd5b5f610a3a600783610f15565b905080610a65578160405163751dff9760e11b8152600401610a5c9190611122565b60405180910390fd5b6001600160a01b038083165f9081526009602052604090819020805460ff191690556006549051634386017560e01b8152911690634386017590610aad908590600401611122565b5f604051808303815f87803b158015610ac4575f5ffd5b505af1158015610ad6573d5f5f3e3d5ffd5b505060035460405163841181ef60e01b81526001600160a01b03909116925063841181ef9150610b0a908590600401611122565b5f604051808303815f87803b158015610b21575f5ffd5b505af1158015610b33573d5f5f3e3d5ffd5b50506040516001600160a01b03851692507f952363a786fc6f24cfb955cd6207cf91ecee3a82a7dd0bc26891ff7647b5784c91505f90a25050565b610b76610ee3565b6001600160a01b038116610b9d5760405163d92e233d60e01b815260040160405180910390fd5b6003546001600160a01b031615610bc757604051630ea075bf60e21b815260040160405180910390fd5b600380546001600160a01b0319166001600160a01b0392909216919091179055565b60605f610bf66007610f58565b90508061ffff166001600160401b03811115610c1457610c146112e4565b604051908082528060200260200182016040528015610c3d578160200160208202803683370190505b5091505f5b8161ffff168161ffff161015610c9757610c61600761ffff8316610fb0565b838261ffff1681518110610c7757610c776112f8565b6001600160a01b0390921660209283029190910190910152600101610c42565b505090565b5f610ca8600c83610f44565b806107685750610768600a83610f44565b60605f6001836001811115610cd057610cd0611296565b14610cdc57600a610cdf565b600c5b90505f610ceb82610f58565b90505f8161ffff166001600160401b03811115610d0a57610d0a6112e4565b604051908082528060200260200182016040528015610d33578160200160208202803683370190505b5090505f5b8261ffff168161ffff161015610d8c57610d568461ffff8316610fb0565b828261ffff1681518110610d6c57610d6c6112f8565b6001600160a01b0390921660209283029190910190910152600101610d38565b50949350505050565b5f8060035f9054906101000a90046001600160a01b03166001600160a01b031663055ad42e6040518163ffffffff1660e01b8152600401602060405180830381865afa158015610de7573d5f5f3e3d5ffd5b505050506040513d601f19601f82011682018060405250810190610e0b919061130c565b6003811115610e1c57610e1c611296565b1480156107795750600254604080516302ad6a1760e11b815290515f926001600160a01b03169163055ad42e9160048083019260209291908290030181865afa158015610e6b573d5f5f3e3d5ffd5b505050506040513d601f19601f82011682018060405250810190610e8f919061132a565b6007811115610ea057610ea0611296565b14905090565b610eae610ee3565b6001600160a01b038116610ed7575f604051631e4fbdf760e01b8152600401610a5c9190611122565b610ee081610f61565b50565b33610eec610909565b6001600160a01b03161461080c573360405163118cdaa760e01b8152600401610a5c9190611122565b5f610f29836001600160a01b038416610fbb565b9392505050565b5f610f29836001600160a01b03841661109e565b5f610f29836001600160a01b0384166110e5565b5f610768825490565b5f80546001600160a01b038381166001600160a01b0319831681178455604051919092169283917f8be0079c531659141344cd1fd0a4f28419497f9722a3daafe3b4186f6b6457e09190a35050565b5f610f2983836110fc565b5f8181526001830160205260408120548015611095575f610fdd600183611348565b85549091505f90610ff090600190611348565b905080821461104f575f865f01828154811061100e5761100e6112f8565b905f5260205f200154905080875f01848154811061102e5761102e6112f8565b5f918252602080832090910192909255918252600188019052604090208390555b855486908061106057611060611367565b600190038181905f5260205f20015f90559055856001015f8681526020019081526020015f205f905560019350505050610768565b5f915050610768565b5f6110a983836110e5565b6110de57508154600181810184555f848152602080822090930184905584548482528286019093526040902091909155610768565b505f610768565b5f9081526001919091016020526040902054151590565b5f825f018281548110611111576111116112f8565b905f5260205f200154905092915050565b6001600160a01b0391909116815260200190565b80356001600160a01b038116811461114c575f5ffd5b919050565b5f60208284031215611161575f5ffd5b610f2982611136565b80356002811061114c575f5ffd5b5f5f60408385031215611189575f5ffd5b61119283611136565b91506111a06020840161116a565b90509250929050565b5f5f5f606084860312156111bb575f5ffd5b6111c484611136565b92506111d260208501611136565b91506111e060408501611136565b90509250925092565b5f602082840312156111f9575f5ffd5b813561ffff81168114610f29575f5ffd5b5f5f6040838503121561121b575f5ffd5b61122483611136565b91506111a060208401611136565b602080825282518282018190525f918401906040840190835b818110156112725783516001600160a01b031683526020938401939092019160010161124b565b509095945050505050565b5f6020828403121561128d575f5ffd5b610f298261116a565b634e487b7160e01b5f52602160045260245ffd5b5f602082840312156112ba575f5ffd5b815160ff81168114610f29575f5ffd5b6001600160a01b0392831681529116602082015260400190565b634e487b7160e01b5f52604160045260245ffd5b634e487b7160e01b5f52603260045260245ffd5b5f6020828403121561131c575f5ffd5b815160048110610f29575f5ffd5b5f6020828403121561133a575f5ffd5b815160088110610f29575f5ffd5b8181038181111561076857634e487b7160e01b5f52601160045260245ffd5b634e487b7160e01b5f52603160045260245ffdfea2646970667358221220ecaa4d204dd1c942bfbfa2f6131cf609dde46da5a7bacd474af187686b9d046664736f6c634300081c0033",
  "linkReferences": {},
  "deployedLinkReferences": {}
}