{
  "_format": "hh-sol-artifact-1",
  "contractName": "TransparentVaultFactory",
  "sourceName": "contracts/factories/TransparentVaultFactory.sol",
  "abi": [
    {
      "inputs": [
        {
          "internalType": "address",
          "name": "configAddress",
          "type": "address"
        }
      ],
      "stateMutability": "nonpayable",
      "type": "constructor"
    },
    {
      "inputs": [],
      "name": "SystemNotIdle",
      "type": "error"
    },
    {
      "inputs": [],
      "name": "ZeroAddress",
      "type": "error"
    },
    {
      "anonymous": false,
      "inputs": [
        {
          "indexed": true,
          "internalType": "address",
          "name": "vault",
          "type": "address"
        },
        {
          "indexed": true,
          "internalType": "address",
          "name": "vaultOwner",
          "type": "address"
        },
        {
          "indexed": true,
          "internalType": "address",
          "name": "curator",
          "type": "address"
        },
        {
          "indexed": false,
          "internalType": "string",
          "name": "name",
          "type": "string"
        },
        {
          "indexed": false,
          "internalType": "string",
          "name": "symbol",
          "type": "string"
        },
        {
          "indexed": false,
          "internalType": "uint8",
          "name": "feeType",
          "type": "uint8"
        },
        {
          "indexed": false,
          "internalType": "uint16",
          "name": "performanceFee",
          "type": "uint16"
        },
        {
          "indexed": false,
          "internalType": "uint16",
          "name": "managementFee",
          "type": "uint16"
        },
        {
          "indexed": false,
          "internalType": "enum EventsLib.VaultType",
          "name": "vaultType",
          "type": "uint8"
        }
      ],
      "name": "OrionVaultCreated",
      "type": "event"
    },
    {
      "inputs": [],
      "name": "config",
      "outputs": [
        {
          "internalType": "contract IOrionConfig",
          "name": "",
          "type": "address"
        }
      ],
      "stateMutability": "view",
      "type": "function"
    },
    {
      "inputs": [
        {
          "internalType": "address",
          "name": "curator",
          "type": "address"
        },
        {
          "internalType": "string",
          "name": "name",
          "type": "string"
        },
        {
          "internalType": "string",
          "name": "symbol",
          "type": "string"
        },
        {
          "internalType": "uint8",
          "name": "feeType",
          "type": "uint8"
        },
        {
          "internalType": "uint16",
          "name": "performanceFee",
          "type": "uint16"
        },
        {
          "internalType": "uint16",
          "name": "managementFee",
          "type": "uint16"
        }
      ],
      "name": "createVault",
      "outputs": [
        {
          "internalType": "address",
          "name": "vault",
          "type": "address"
        }
      ],
      "stateMutability": "nonpayable",
      "type": "function"
    }
  ],
  "bytecode": "0x6080604052348015600e575f5ffd5b506040516147f03803806147f0833981016040819052602b916074565b6001600160a01b03811660515760405163d92e233d60e01b815260040160405180910390fd5b5f80546001600160a01b0319166001600160a01b0392909216919091179055609f565b5f602082840312156083575f5ffd5b81516001600160a01b03811681146098575f5ffd5b9392505050565b614744806100ac5f395ff3fe608060405234801561000f575f5ffd5b5060043610610034575f3560e01c8063341624941461003857806379502c5514610067575b5f5ffd5b61004b6100463660046102e1565b610079565b6040516001600160a01b03909116815260200160405180910390f35b5f5461004b906001600160a01b031681565b5f33806100995760405163d92e233d60e01b815260040160405180910390fd5b6001600160a01b038a166100c05760405163d92e233d60e01b815260040160405180910390fd5b5f5f9054906101000a90046001600160a01b03166001600160a01b031663edcf9c1f6040518163ffffffff1660e01b8152600401602060405180830381865afa15801561010f573d5f5f3e3d5ffd5b505050506040513d601f19601f8201168201806040525081019061013391906103a2565b610150576040516312aecd8160e01b815260040160405180910390fd5b5f818b5f5f9054906101000a90046001600160a01b03168c8c8c8c8c8c8c60405161017a9061027a565b61018d9a999897969594939291906103f0565b604051809103905ff0801580156101a6573d5f5f3e3d5ffd5b505f8054604051631e832de160e21b81529295508593506001600160a01b031691637a0cb784916101dc91859190600401610483565b5f604051808303815f87803b1580156101f3575f5ffd5b505af1158015610205573d5f5f3e3d5ffd5b505050508a6001600160a01b0316826001600160a01b0316846001600160a01b03167f91700e2f05ab5287673189803ecbe9609340db98196ee954ac9865daf4308d2d8d8d8d8d8d8d8d5f6040516102649897969594939291906104a0565b60405180910390a4505098975050505050505050565b61420e8061050183390190565b5f5f83601f840112610297575f5ffd5b5081356001600160401b038111156102ad575f5ffd5b6020830191508360208285010111156102c4575f5ffd5b9250929050565b803561ffff811681146102dc575f5ffd5b919050565b5f5f5f5f5f5f5f5f60c0898b0312156102f8575f5ffd5b88356001600160a01b038116811461030e575f5ffd5b975060208901356001600160401b03811115610328575f5ffd5b6103348b828c01610287565b90985096505060408901356001600160401b03811115610352575f5ffd5b61035e8b828c01610287565b909650945050606089013560ff81168114610377575f5ffd5b925061038560808a016102cb565b915061039360a08a016102cb565b90509295985092959890939650565b5f602082840312156103b2575f5ffd5b815180151581146103c1575f5ffd5b9392505050565b81835281816020850137505f828201602090810191909152601f909101601f19169091010190565b6001600160a01b038b811682528a8116602083015289166040820152610100606082018190525f90610425908301898b6103c8565b828103608084015261043881888a6103c8565b60ff9690961660a0840152505061ffff92831660c0820152911660e090910152979650505050505050565b6002811061047f57634e487b7160e01b5f52602160045260245ffd5b9052565b6001600160a01b0383168152604081016103c16020830184610463565b60c081525f6104b360c083018a8c6103c8565b82810360208401526104c681898b6103c8565b91505060ff8616604083015261ffff8516606083015261ffff841660808301526104f360a0830184610463565b999850505050505050505056fe60c060405234801561000f575f5ffd5b5060405161420e38038061420e83398101604081905261002e916107f8565b8787878787878787856001600160a01b0316637158da7c6040518163ffffffff1660e01b8152600401602060405180830381865afa158015610072573d5f5f3e3d5ffd5b505050506040513d601f19601f8201168201806040525081019061009691906108c7565b858560036100a4838261096d565b5060046100b1828261096d565b5050505f5f6100c5836104f860201b60201c565b91509150816100d55760126100d7565b805b60ff1660a05250506001600160a01b03908116608052600160055587166101115760405163e6c4247b60e01b815260040160405180910390fd5b6001600160a01b0386166101385760405163e6c4247b60e01b815260040160405180910390fd5b600680546001600160a01b03808b166001600160a01b031992831617909255600780548a841690831617905560088054928916929091168217905560408051630691d8b960e31b8152905163348ec5c8916004808201926020929091908290030181865afa1580156101ac573d5f5f3e3d5ffd5b505050506040513d601f19601f820116820180604052508101906101d091906108c7565b60095f6101000a8154816001600160a01b0302191690836001600160a01b03160217905550856001600160a01b0316633a0dad8e6040518163ffffffff1660e01b8152600401602060405180830381865afa158015610231573d5f5f3e3d5ffd5b505050506040513d601f19601f8201168201806040525081019061025591906108c7565b600a5f6101000a8154816001600160a01b0302191690836001600160a01b03160217905550856001600160a01b031663d1717c7d6040518163ffffffff1660e01b8152600401602060405180830381865afa1580156102b6573d5f5f3e3d5ffd5b505050506040513d601f19601f820116820180604052508101906102da9190610a27565b600a60146101000a81548160ff021916908360ff1602179055505f600d819055505f6014819055505f6015819055505f866001600160a01b0316637158da7c6040518163ffffffff1660e01b8152600401602060405180830381865afa158015610346573d5f5f3e3d5ffd5b505050506040513d601f19601f8201168201806040525081019061036a91906108c7565b6001600160a01b031663313ce5676040518163ffffffff1660e01b8152600401602060405180830381865afa1580156103a5573d5f5f3e3d5ffd5b505050506040513d601f19601f820116820180604052508101906103c99190610a27565b9050601260ff821611156103f057604051631c03248960e11b815260040160405180910390fd5b600460ff85161115610415576040516317dbc4cb60e21b815260040160405180910390fd5b610bb861ffff8416111561043c576040516317dbc4cb60e21b815260040160405180910390fd5b61012c61ffff83161115610463576040516317dbc4cb60e21b815260040160405180910390fd5b8360ff16600481111561047857610478610a40565b6017805460ff1916600183600481111561049457610494610a40565b02179055506017805461ffff84811663010000000264ffff00000019918716610100029190911664ffffffff0019909216919091171790556104d781600a610b4b565b6018556104e26105ce565b5050505050505050505050505050505050610c4c565b60408051600481526024810182526020810180516001600160e01b031663313ce56760e01b17905290515f918291829182916001600160a01b0387169161053e91610b59565b5f60405180830381855afa9150503d805f8114610576576040519150601f19603f3d011682016040523d82523d5f602084013e61057b565b606091505b509150915081801561058f57506020815110155b156105c2575f818060200190518101906105a99190610b6f565b905060ff81116105c0576001969095509350505050565b505b505f9485945092505050565b60085460408051636c366a2760e11b815290515f926001600160a01b03169163d86cd44e91600480830192869291908290030181865afa158015610614573d5f5f3e3d5ffd5b505050506040513d5f823e601f3d908101601f1916820160405261063b9190810190610b86565b90505f5b815181101561069f575f61067683838151811061065e5761065e610c38565b6020026020010151600b6106a360201b90919060201c565b90508061069657604051630ea075bf60e21b815260040160405180910390fd5b5060010161063f565b5050565b5f6106b7836001600160a01b0384166106c0565b90505b92915050565b5f81815260018301602052604081205461070557508154600181810184555f8481526020808220909301849055845484825282860190935260409020919091556106ba565b505f6106ba565b6001600160a01b0381168114610720575f5ffd5b50565b634e487b7160e01b5f52604160045260245ffd5b604051601f8201601f191681016001600160401b038111828210171561075f5761075f610723565b604052919050565b5f82601f830112610776575f5ffd5b81516001600160401b0381111561078f5761078f610723565b6107a2601f8201601f1916602001610737565b8181528460208386010111156107b6575f5ffd5b8160208501602083015e5f918101602001919091529392505050565b805160ff811681146107e2575f5ffd5b919050565b805161ffff811681146107e2575f5ffd5b5f5f5f5f5f5f5f5f610100898b031215610810575f5ffd5b885161081b8161070c565b60208a015190985061082c8161070c565b60408a015190975061083d8161070c565b60608a01519096506001600160401b03811115610858575f5ffd5b6108648b828c01610767565b60808b015190965090506001600160401b03811115610881575f5ffd5b61088d8b828c01610767565b94505061089c60a08a016107d2565b92506108aa60c08a016107e7565b91506108b860e08a016107e7565b90509295985092959890939650565b5f602082840312156108d7575f5ffd5b81516108e28161070c565b9392505050565b600181811c908216806108fd57607f821691505b60208210810361091b57634e487b7160e01b5f52602260045260245ffd5b50919050565b601f82111561096857805f5260205f20601f840160051c810160208510156109465750805b601f840160051c820191505b81811015610965575f8155600101610952565b50505b505050565b81516001600160401b0381111561098657610986610723565b61099a8161099484546108e9565b84610921565b6020601f8211600181146109cc575f83156109b55750848201515b5f19600385901b1c1916600184901b178455610965565b5f84815260208120601f198516915b828110156109fb57878501518255602094850194600190920191016109db565b5084821015610a1857868401515f19600387901b60f8161c191681555b50505050600190811b01905550565b5f60208284031215610a37575f5ffd5b6106b7826107d2565b634e487b7160e01b5f52602160045260245ffd5b634e487b7160e01b5f52601160045260245ffd5b6001815b6001841115610aa357808504811115610a8757610a87610a54565b6001841615610a9557908102905b60019390931c928002610a6c565b935093915050565b5f82610ab9575060016106ba565b81610ac557505f6106ba565b8160018114610adb5760028114610ae557610b01565b60019150506106ba565b60ff841115610af657610af6610a54565b50506001821b6106ba565b5060208310610133831016604e8410600b8410161715610b24575081810a6106ba565b610b305f198484610a68565b805f1904821115610b4357610b43610a54565b029392505050565b5f6106b760ff841683610aab565b5f82518060208501845e5f920191825250919050565b5f60208284031215610b7f575f5ffd5b5051919050565b5f60208284031215610b96575f5ffd5b81516001600160401b03811115610bab575f5ffd5b8201601f81018413610bbb575f5ffd5b80516001600160401b03811115610bd457610bd4610723565b8060051b610be460208201610737565b91825260208184018101929081019087841115610bff575f5ffd5b6020850194505b83851015610c2d5784519250610c1b8361070c565b82825260209485019490910190610c06565b979650505050505050565b634e487b7160e01b5f52603260045260245ffd5b60805160a0516135a4610c6a5f395f50505f610e4401526135a45ff3fe608060405234801561000f575f5ffd5b50600436106102a7575f3560e01c806301e1d114146102ab57806303d44854146102c257806306fdde03146102d757806307a2d13a146102ec578063095ea7b3146102ff5780630a28a477146103225780630a605c6d146103355780630c6a62dd1461033d5780630d1e6667146103505780630df571f714610363578063105444941461037657806318160ddd1461038957806318c21949146103915780631f52692b146103a457806323b872dd146103c4578063313ce567146103d7578063348ec5c8146103ec57806338d52e0f146103ff5780633a0dad8e146104075780633ab6d27c1461041a578063402d267d1461042d578063493a6e21146104415780634cdad506146103225780634e85b135146104545780636e553f651461046957806370a08231146104775780637847ea531461048a57806379502c55146104aa57806380ceebfe146104bd5780638f5c9465146104d057806394bf804d1461046957806395d89b41146104ec57806397ee1144146104f45780639908840c1461052a578063a68a526714610533578063a9059cbb14610546578063aa2f892d14610559578063acdb3d511461056c578063b1bd7e2e14610575578063b3d7f6b914610322578063b460af9414610588578063b6eba65314610596578063ba08765214610588578063bdca9165146105ac578063c0b568e1146105b5578063c3f0d30e146105c8578063c63d75b61461042d578063c6e6f592146105db578063ce96cb77146105ee578063d1717c7d14610601578063d3d0345814610615578063d853365f1461062b578063d905777e14610633578063dd62ed3e14610646578063e51a85f614610659578063e5e971931461066c578063e66f53b71461067f578063ef8b30f714610322578063f64c6f3214610692575b5f5ffd5b600d545b6040519081526020015b60405180910390f35b6102d56102d0366004612dab565b61069a565b005b6102df6107d4565b6040516102b99190612e1a565b6102af6102fa366004612e4f565b610864565b61031261030d366004612e81565b610875565b60405190151581526020016102b9565b6102af610330366004612e4f565b61088c565b6015546102af565b6102d561034b366004612ea9565b6108a6565b6102d561035e366004612e4f565b610941565b6102d5610371366004612ec2565b610bb2565b6102d5610384366004612f22565b610c2d565b6002546102af565b6102d561039f366004612e4f565b610d4e565b6006546103b7906001600160a01b031681565b6040516102b99190612f69565b6103126103d2366004612f7d565b610e1d565b60125b60405160ff90911681526020016102b9565b6009546103b7906001600160a01b031681565b6103b7610e42565b600a546103b7906001600160a01b031681565b6102d5610428366004612fd4565b610e66565b6102af61043b366004612ea9565b505f1990565b6102d561044f366004612e4f565b611033565b61045c6112e2565b6040516102b9919061305f565b6102af610330366004613071565b6102af610485366004612ea9565b6112f3565b6104956301e1338081565b60405163ffffffff90911681526020016102b9565b6008546103b7906001600160a01b031681565b6102af6104cb36600461309b565b61130d565b6104d961271081565b60405161ffff90911681526020016102b9565b6102df61134d565b60175460185461051a9160ff81169161ffff610100830481169263010000009004169084565b6040516102b994939291906130dd565b6104d961012c81565b6102af61054136600461309b565b61135c565b610312610554366004612e81565b61138b565b6102d5610567366004612e4f565b611398565b6102af60165481565b6102d561058336600461311b565b611571565b6102af610330366004613159565b61059e61177d565b6040516102b9929190613192565b6104d9610bb881565b6102d56105c3366004612e4f565b6118b7565b6102d56105d6366004612e4f565b611a71565b6102af6105e9366004612e4f565b611c65565b6102af6105fc366004612ea9565b611c70565b600a546103da90600160a01b900460ff1681565b61061d611c83565b6040516102b99291906131f0565b6103da601281565b6102af610641366004612ea9565b611dad565b6102af61065436600461323c565b611db7565b6102af610667366004612e4f565b611de1565b6102d561067a366004612e4f565b611e1a565b6007546103b7906001600160a01b031681565b6014546102af565b6006546001600160a01b031633146106c557604051631a27eac360e11b815260040160405180910390fd5b6106cf600b61205c565b5f5b818110156107cf575f8383838181106106ec576106ec613264565b90506020020160208101906107019190612ea9565b600854604051633af32abf60e01b81529192506001600160a01b031690633af32abf90610732908490600401612f69565b602060405180830381865afa15801561074d573d5f5f3e3d5ffd5b505050506040513d601f19601f820116820180604052508101906107719190613278565b610799578060405163751dff9760e11b81526004016107909190612f69565b60405180910390fd5b5f6107a5600b83612065565b9050806107c557604051630ea075bf60e21b815260040160405180910390fd5b50506001016106d1565b505050565b6060600380546107e390613297565b80601f016020809104026020016040519081016040528092919081815260200182805461080f90613297565b801561085a5780601f106108315761010080835404028352916020019161085a565b820191905f5260205f20905b81548152906001019060200180831161083d57829003601f168201915b5050505050905090565b5f61086f825f612079565b92915050565b5f336108828185856120ba565b5060019392505050565b5f60405163125ad87760e31b815260040160405180910390fd5b6006546001600160a01b031633146108d157604051631a27eac360e11b815260040160405180910390fd5b6001600160a01b0381166108f85760405163e6c4247b60e01b815260040160405180910390fd5b600780546001600160a01b0319166001600160a01b0383169081179091556040517f83293ffeebb677b167941693470018acf300605df266a35e9fdb66f24ff00fe0905f90a250565b6109496120c7565b60085f9054906101000a90046001600160a01b03166001600160a01b031663edcf9c1f6040518163ffffffff1660e01b8152600401602060405180830381865afa158015610999573d5f5f3e3d5ffd5b505050506040513d601f19601f820116820180604052508101906109bd9190613278565b6109da576040516312aecd8160e01b815260040160405180910390fd5b805f03610a03576109e9610e42565b604051636b30633560e01b81526004016107909190612f69565b5f610a0c610e42565b6001600160a01b03166370a08231336040518263ffffffff1660e01b8152600401610a379190612f69565b602060405180830381865afa158015610a52573d5f5f3e3d5ffd5b505050506040513d601f19601f82011682018060405250810190610a7691906132cf565b905080821115610a9957604051632ca2f52b60e11b815260040160405180910390fd5b5f610aa2610e42565b600a546040516323b872dd60e01b81526001600160a01b03928316926323b872dd92610ad89233929091169088906004016132e6565b6020604051808303815f875af1158015610af4573d5f5f3e3d5ffd5b505050506040513d601f19601f82011682018060405250810190610b189190613278565b905080610b38576040516312171d8360e31b815260040160405180910390fd5b5f610b44600e336120f1565b9150610b5f905033610b56868461331e565b600e9190612117565b508360145f828254610b71919061331e565b9091555050604051849033907f55896b30a78fc55b78937f8014dde3f0035e9d37a4f6ac36841fb8b62f7e2b13905f90a3505050610baf6001600555565b50565b6009546001600160a01b03163314610bdd57604051631a27eac360e11b815260040160405180910390fd5b8015610c29578060165f828254610bf4919061331e565b9091555050601654604051829084907f8b8789cf9157fe7b016901e4ed3a5d0971caa8b7c031da0b25638ccf65841b2a905f90a45b5050565b6009546001600160a01b03163314610c5857604051631a27eac360e11b815260040160405180910390fd5b610c62601961212c565b815f5b8161ffff168161ffff161015610cf257610ce985858361ffff16818110610c8e57610c8e613264565b610ca49260206040909202019081019150612ea9565b86868461ffff16818110610cba57610cba613264565b9050604002016020016020810190610cd29190613342565b63ffffffff1660196121179092919063ffffffff16565b50600101610c65565b50600d8290555f610d0a60125b6102fa90600a613440565b601854909150811115610d1d5760188190555b60405183907f5e1ff954b5e5257e9ee5d4cb07059e8f5e69b1aaaf9911e5d8d90a6894de9c21905f90a25050505050565b6006546001600160a01b03163314610d7957604051631a27eac360e11b815260040160405180910390fd5b805f03610d88576109e9610e42565b601654811115610dab57604051632ca2f52b60e11b815260040160405180910390fd5b8060165f828254610dbc919061344e565b9091555050600a5460405163741fca4b60e01b8152600481018390526001600160a01b039091169063741fca4b906024015f604051808303815f87803b158015610e04575f5ffd5b505af1158015610e16573d5f5f3e3d5ffd5b5050505050565b5f33610e2a858285612135565b610e35858585612186565b60019150505b9392505050565b7f000000000000000000000000000000000000000000000000000000000000000090565b6006546001600160a01b03163314610e9157604051631a27eac360e11b815260040160405180910390fd5b60085f9054906101000a90046001600160a01b03166001600160a01b031663edcf9c1f6040518163ffffffff1660e01b8152600401602060405180830381865afa158015610ee1573d5f5f3e3d5ffd5b505050506040513d601f19601f82011682018060405250810190610f059190613278565b610f22576040516312aecd8160e01b815260040160405180910390fd5b600460ff84161115610f47576040516317dbc4cb60e21b815260040160405180910390fd5b610bb861ffff83161115610f6e576040516317dbc4cb60e21b815260040160405180910390fd5b61012c61ffff82161115610f95576040516317dbc4cb60e21b815260040160405180910390fd5b8260ff166004811115610faa57610faa6130c9565b6017805460ff19166001836004811115610fc657610fc66130c9565b02179055506017805464ffffffff00191661010061ffff85811691820264ffff00000019169290921763010000009285169283021790925560405190919060ff8616907fd24f39e523bfa412fa391702710dc62e1c82d87a8e83228a37c42be1b4870f45905f90a4505050565b600a546001600160a01b0316331461105e57604051631a27eac360e11b815260040160405180910390fd5b6110666120c7565b5f61107160116121e3565b90505f8163ffffffff166001600160401b0381111561109257611092613461565b6040519080825280602002602001820160405280156110bb578160200160208202803683370190505b5090505f8263ffffffff166001600160401b038111156110dd576110dd613461565b604051908082528060200260200182016040528015611106578160200160208202803683370190505b5090505f5b8363ffffffff168163ffffffff1610156111a0575f80611135601163ffffffff808616906121ed16565b9150915081858463ffffffff168151811061115257611152613264565b60200260200101906001600160a01b031690816001600160a01b03168152505080848463ffffffff168151811061118b5761118b613264565b6020908102919091010152505060010161110b565b505f60158190555b8363ffffffff168163ffffffff1610156112d4575f838263ffffffff16815181106111d5576111d5613264565b602002602001015190505f838363ffffffff16815181106111f8576111f8613264565b602002602001015190506112168260116121fb90919063ffffffff16565b505f61122382895f61135c565b905061122f308361220f565b600a54604051634adfc2e760e01b81526001600160a01b0390911690634adfc2e7906112619086908590600401613475565b5f604051808303815f87803b158015611278575f5ffd5b505af115801561128a573d5f5f3e3d5ffd5b505050508181846001600160a01b03167ff279e6a1f5e320cca91135676d9cb6e44ca8a08c0b88342bcdb1144f6511b56860405160405180910390a45050508060010190506111a8565b50505050610baf6001600555565b60606112ee600b612243565b905090565b6001600160a01b03165f9081526020819052604090205490565b5f61134561131961224f565b61132490600a613440565b600254611331919061331e565b61133c85600161331e565b869190856122cb565b949350505050565b6060600480546107e390613297565b5f61134561136b84600161331e565b61137361224f565b61137e90600a613440565b60025461133c919061331e565b5f33610882818585612186565b60085f9054906101000a90046001600160a01b03166001600160a01b031663edcf9c1f6040518163ffffffff1660e01b8152600401602060405180830381865afa1580156113e8573d5f5f3e3d5ffd5b505050506040513d601f19601f8201168201806040525081019061140c9190613278565b611429576040516312aecd8160e01b815260040160405180910390fd5b805f0361144b5730604051636b30633560e01b81526004016107909190612f69565b5f611455336112f3565b90508082111561147857604051632ca2f52b60e11b815260040160405180910390fd5b6040516323b872dd60e01b81525f9030906323b872dd906114a1903390849088906004016132e6565b6020604051808303815f875af11580156114bd573d5f5f3e3d5ffd5b505050506040513d601f19601f820116820180604052508101906114e19190613278565b905080611501576040516312171d8360e31b815260040160405180910390fd5b5f61150d6011336120f1565b915061152890503361151f868461331e565b60119190612117565b508360155f82825461153a919061331e565b9091555050604051849033907f222dc200773fe9b45015bf792e8fee37d651e3590c215806a5042404b6d741d2905f90a350505050565b6007546001600160a01b0316331461159c57604051631a27eac360e11b815260040160405180910390fd5b5f8190036115bd57604051631121aa8d60e01b815260040160405180910390fd5b6115c7601c61212c565b5f816001600160401b038111156115e0576115e0613461565b604051908082528060200260200182016040528015611609578160200160208202803683370190505b5090505f82815b8161ffff168161ffff161015611707575f86868361ffff1681811061163757611637613264565b61164d9260206040909202019081019150612ea9565b90505f87878461ffff1681811061166657611666613264565b905060400201602001602081019061167e9190613342565b905081868461ffff168151811061169757611697613264565b6001600160a01b03909216602092830291909101909101525f6116c5601c8463ffffffff8086169061211716565b9050806116e757826040516346bdabe160e01b81526004016107909190612f69565b6116f763ffffffff83168761331e565b9550505050806001019050611610565b506117118361230d565b600a60149054906101000a900460ff16600a61172d9190613440565b821461174c57604051639006dd2760e01b815260040160405180910390fd5b60405133907f2d47a742b8d7df7c1fc5a9a631b206b364e6cb2722490759f63bb3ab14b132e0905f90a25050505050565b6060805f61178b601c6121e3565b90508061ffff166001600160401b038111156117a9576117a9613461565b6040519080825280602002602001820160405280156117d2578160200160208202803683370190505b5092508061ffff166001600160401b038111156117f1576117f1613461565b60405190808252806020026020018201604052801561181a578160200160208202803683370190505b5091505f5b8161ffff168161ffff1610156118b1575f80611840601c61ffff85166121ed565b9150915081868461ffff168151811061185b5761185b613264565b60200260200101906001600160a01b031690816001600160a01b03168152505080858461ffff168151811061189257611892613264565b63ffffffff90921660209283029190910190910152505060010161181f565b50509091565b6118bf6120c7565b60085f9054906101000a90046001600160a01b03166001600160a01b031663edcf9c1f6040518163ffffffff1660e01b8152600401602060405180830381865afa15801561190f573d5f5f3e3d5ffd5b505050506040513d601f19601f820116820180604052508101906119339190613278565b611950576040516312aecd8160e01b815260040160405180910390fd5b805f0361195f576109e9610e42565b5f61196b600e336120f1565b9150508181101561198f57604051632ca2f52b60e11b815260040160405180910390fd5b600a546040516351edffb160e01b81526001600160a01b03909116906351edffb1906119c19033908690600401613475565b5f604051808303815f87803b1580156119d8575f5ffd5b505af11580156119ea573d5f5f3e3d5ffd5b505050505f82826119fb919061344e565b9050805f03611a1557611a0f600e336121fb565b50611a23565b611a21600e3383612117565b505b8260145f828254611a34919061344e565b9091555050604051839033907f96a9a6886cdf3047a125454218a23d3961fd3a78643123b248a9d106d0ac94fd905f90a35050610baf6001600555565b611a796120c7565b60085f9054906101000a90046001600160a01b03166001600160a01b031663edcf9c1f6040518163ffffffff1660e01b8152600401602060405180830381865afa158015611ac9573d5f5f3e3d5ffd5b505050506040513d601f19601f82011682018060405250810190611aed9190613278565b611b0a576040516312aecd8160e01b815260040160405180910390fd5b805f03611b2c5730604051636b30633560e01b81526004016107909190612f69565b5f611b386011336120f1565b91505081811015611b5c57604051632ca2f52b60e11b815260040160405180910390fd5b5f611b67838361344e565b9050805f03611b8157611b7b6011336121fb565b50611b8f565b611b8d60113383612117565b505b8260155f828254611ba0919061344e565b909155505060405163a9059cbb60e01b81525f90309063a9059cbb90611bcc9033908890600401613475565b6020604051808303815f875af1158015611be8573d5f5f3e3d5ffd5b505050506040513d601f19601f82011682018060405250810190611c0c9190613278565b905080611c2c576040516312171d8360e31b815260040160405180910390fd5b604051849033907f046d3e17087d323298991516e3fdec36fe1204d6bff7fb6e2b8eca77b80a22ad905f90a3505050610baf6001600555565b5f61086f825f612385565b5f61086f611c7d836112f3565b5f612079565b6060805f611c9160196121e3565b90508061ffff166001600160401b03811115611caf57611caf613461565b604051908082528060200260200182016040528015611cd8578160200160208202803683370190505b5092508061ffff166001600160401b03811115611cf757611cf7613461565b604051908082528060200260200182016040528015611d20578160200160208202803683370190505b5091505f5b8161ffff168161ffff1610156118b1575f80611d46601961ffff85166121ed565b9150915081868461ffff1681518110611d6157611d61613264565b60200260200101906001600160a01b031690816001600160a01b03168152505080858461ffff1681518110611d9857611d98613264565b60209081029190910101525050600101611d25565b5f61086f826112f3565b6001600160a01b039182165f90815260016020908152604080832093909416825291909152205490565b5f5f611dec836123b7565b90505f611df9828561344e565b90505f611e0582612481565b9050611e11818461331e565b95945050505050565b6009546001600160a01b03163314611e4557604051631a27eac360e11b815260040160405180910390fd5b611e4d6120c7565b5f611e58600e6121e3565b90505f8163ffffffff166001600160401b03811115611e7957611e79613461565b604051908082528060200260200182016040528015611ea2578160200160208202803683370190505b5090505f8263ffffffff166001600160401b03811115611ec457611ec4613461565b604051908082528060200260200182016040528015611eed578160200160208202803683370190505b5090505f5b8363ffffffff168163ffffffff161015611f87575f80611f1c600e63ffffffff808616906121ed16565b9150915081858463ffffffff1681518110611f3957611f39613264565b60200260200101906001600160a01b031690816001600160a01b03168152505080848463ffffffff1681518110611f7257611f72613264565b60209081029190910101525050600101611ef2565b505f60148190555b8363ffffffff168163ffffffff1610156112d4575f838263ffffffff1681518110611fbc57611fbc613264565b602002602001015190505f838363ffffffff1681518110611fdf57611fdf613264565b60200260200101519050611ffd82600e6121fb90919063ffffffff16565b505f61200a82895f61130d565b90506120168382612511565b8082846001600160a01b03167f90890809c654f11d6e72a28fa60149770a0d11ec6c92319d6ceb2bb0a4ea1a1560405160405180910390a4505050806001019050611f8f565b610baf81612545565b5f610e3b836001600160a01b03841661259e565b5f610e3b612086600d5490565b61209190600161331e565b61209961224f565b6120a490600a613440565b6002546120b1919061331e565b859190856122cb565b6107cf83838360016125e5565b6002600554036120ea57604051633ee5aeb560e01b815260040160405180910390fd5b6002600555565b5f808080612108866001600160a01b0387166126b7565b909450925050505b9250929050565b5f611345846001600160a01b038516846126ef565b610baf8161270b565b5f6121408484611db7565b90505f19811015612180578181101561217257828183604051637dc7a0d960e11b81526004016107909392919061348e565b61218084848484035f6125e5565b50505050565b6001600160a01b0383166121af575f604051634b637e8f60e11b81526004016107909190612f69565b6001600160a01b0382166121d8575f60405163ec442f0560e01b81526004016107909190612f69565b6107cf838383612754565b5f61086f82612867565b5f8080806121088686612871565b5f610e3b836001600160a01b03841661289a565b6001600160a01b038216612238575f604051634b637e8f60e11b81526004016107909190612f69565b610c29825f83612754565b60605f610e3b836128b6565b5f5f612259610e42565b6001600160a01b031663313ce5676040518163ffffffff1660e01b8152600401602060405180830381865afa158015612294573d5f5f3e3d5ffd5b505050506040513d601f19601f820116820180604052508101906122b891906134af565b90506122c58160126134ca565b91505090565b5f6122f86122d88361290f565b80156122f357505f84806122ee576122ee6134e3565b868809115b151590565b61230386868661293b565b611e11919061331e565b5f5b8151811015610c295761234582828151811061232d5761232d613264565b6020026020010151600b6129eb90919063ffffffff16565b61237d5781818151811061235b5761235b613264565b602002602001015160405163751dff9760e11b81526004016107909190612f69565b60010161230f565b5f610e3b61239161224f565b61239c90600a613440565b6002546123a9919061331e565b600d546120b190600161331e565b6017545f906301000000900461ffff1681036123d457505f919050565b6017545f906123f1906301000000900461ffff168461271061293b565b9050610e3b60095f9054906101000a90046001600160a01b03166001600160a01b0316634ff0876a6040518163ffffffff1660e01b8152600401602060405180830381865afa158015612446573d5f5f3e3d5ffd5b505050506040513d601f19601f8201168201806040525081019061246a91906134f7565b829063ffffffff908116906301e133809061293b16565b6017545f90610100900461ffff16810361249c57505f919050565b5f6124b36124ac6012600a613440565b845f61135c565b6017549091505f9081906124c99060ff166129ff565b91509150818310156124df57505f949350505050565b6017545f906124f890610100900461ffff16858461293b565b9050612507818761271061293b565b9695505050505050565b6001600160a01b03821661253a575f60405163ec442f0560e01b81526004016107909190612f69565b610c295f8383612754565b5f61254e825490565b90505f5b8181101561259757826001015f845f01838154811061257357612573613264565b905f5260205f20015481526020019081526020015f205f9055806001019050612552565b50505f9055565b5f6125a98383612ae9565b6125de57508154600181810184555f84815260208082209093018490558454848252828601909352604090209190915561086f565b505f61086f565b6001600160a01b03841661260e575f60405163e602df0560e01b81526004016107909190612f69565b6001600160a01b038316612637575f604051634a1406b160e11b81526004016107909190612f69565b6001600160a01b038085165f908152600160209081526040808320938716835292905220829055801561218057826001600160a01b0316846001600160a01b03167f8c5be1e5ebec7d5bd14f71427d1e84f3dd0314c0f7b2291e5b200ac8c7c3b925846040516126a991815260200190565b60405180910390a350505050565b5f8181526002830160205260408120548190806126e4576126d88585612b00565b92505f91506121109050565b600192509050612110565b5f82815260028401602052604081208290556113458484612b0b565b5f61271582612867565b90505f5b8181101561274a57600283015f6127308584612b16565b815260208101919091526040015f90812055600101612719565b50610c298261205c565b6001600160a01b03831661277e578060025f828254612773919061331e565b909155506127db9050565b6001600160a01b0383165f90815260208190526040902054818110156127bd5783818360405163391434e360e21b81526004016107909392919061348e565b6001600160a01b0384165f9081526020819052604090209082900390555b6001600160a01b0382166127f757600280548290039055612815565b6001600160a01b0382165f9081526020819052604090208054820190555b816001600160a01b0316836001600160a01b03167fddf252ad1be2c89b69c2b068fc378daa952ba7f163c4a11628f55a4df523b3ef8360405161285a91815260200190565b60405180910390a3505050565b5f61086f82612b21565b5f808061287e8585612b16565b5f81815260029690960160205260409095205494959350505050565b5f8181526002830160205260408120819055610e3b8383612b2a565b6060815f0180548060200260200160405190810160405280929190818152602001828054801561290357602002820191905f5260205f20905b8154815260200190600101908083116128ef575b50505050509050919050565b5f6002826003811115612924576129246130c9565b61292e9190613512565b60ff166001149050919050565b5f5f5f6129488686612b35565b91509150815f0361296c57838181612962576129626134e3565b0492505050610e3b565b818411612983576129836003851502601118612b51565b5f848688095f868103871696879004966002600389028118808a02820302808a02820302808a02820302808a02820302808a02820302808a02909103029181900381900460010185841190960395909502919093039390930492909217029150509392505050565b5f610e3b836001600160a01b038416612ae9565b5f8080612a0c6012610cff565b90505f846004811115612a2157612a216130c9565b03612a3157809250829150612ae3565b6003846004811115612a4557612a456130c9565b03612a57576018549250829150612ae3565b6001846004811115612a6b57612a6b6130c9565b03612a8357612a7981612b62565b9250809150612ae3565b6002846004811115612a9757612a976130c9565b03612aaf57612aa581612b62565b9250829150612ae3565b6004846004811115612ac357612ac36130c9565b03612ae357601854612add90612ad883612b62565b612c88565b92508291505b50915091565b5f9081526001919091016020526040902054151590565b5f610e3b8383612c97565b5f610e3b838361259e565b5f610e3b8383612ca2565b5f61086f825490565b5f610e3b8383612cc8565b5f805f1983850993909202808410938190039390930393915050565b634e487b715f52806020526024601cfd5b5f5f60085f9054906101000a90046001600160a01b03166001600160a01b031663f3cc69936040518163ffffffff1660e01b8152600401602060405180830381865afa158015612bb4573d5f5f3e3d5ffd5b505050506040513d601f19601f82011682018060405250810190612bd8919061353f565b61ffff1690505f612c6d60095f9054906101000a90046001600160a01b03166001600160a01b0316634ff0876a6040518163ffffffff1660e01b8152600401602060405180830381865afa158015612c32573d5f5f3e3d5ffd5b505050506040513d601f19601f82011682018060405250810190612c5691906134f7565b839063ffffffff908116906301e133809061293b16565b9050611345612c7e8261271061331e565b859061271061293b565b5f828218828411028218610e3b565b5f610e3b8383612ae9565b5f825f018281548110612cb757612cb7613264565b905f5260205f200154905092915050565b5f8181526001830160205260408120548015612da2575f612cea60018361344e565b85549091505f90612cfd9060019061344e565b9050808214612d5c575f865f018281548110612d1b57612d1b613264565b905f5260205f200154905080875f018481548110612d3b57612d3b613264565b5f918252602080832090910192909255918252600188019052604090208390555b8554869080612d6d57612d6d61355a565b600190038181905f5260205f20015f90559055856001015f8681526020019081526020015f205f90556001935050505061086f565b5f91505061086f565b5f5f60208385031215612dbc575f5ffd5b82356001600160401b03811115612dd1575f5ffd5b8301601f81018513612de1575f5ffd5b80356001600160401b03811115612df6575f5ffd5b8560208260051b8401011115612e0a575f5ffd5b6020919091019590945092505050565b602081525f82518060208401528060208501604085015e5f604082850101526040601f19601f83011684010191505092915050565b5f60208284031215612e5f575f5ffd5b5035919050565b80356001600160a01b0381168114612e7c575f5ffd5b919050565b5f5f60408385031215612e92575f5ffd5b612e9b83612e66565b946020939093013593505050565b5f60208284031215612eb9575f5ffd5b610e3b82612e66565b5f5f60408385031215612ed3575f5ffd5b50508035926020909101359150565b5f5f83601f840112612ef2575f5ffd5b5081356001600160401b03811115612f08575f5ffd5b6020830191508360208260061b8501011115612110575f5ffd5b5f5f5f60408486031215612f34575f5ffd5b83356001600160401b03811115612f49575f5ffd5b612f5586828701612ee2565b909790965060209590950135949350505050565b6001600160a01b0391909116815260200190565b5f5f5f60608486031215612f8f575f5ffd5b612f9884612e66565b9250612fa660208501612e66565b929592945050506040919091013590565b60ff81168114610baf575f5ffd5b61ffff81168114610baf575f5ffd5b5f5f5f60608486031215612fe6575f5ffd5b8335612ff181612fb7565b9250602084013561300181612fc5565b9150604084013561301181612fc5565b809150509250925092565b5f8151808452602084019350602083015f5b828110156130555781516001600160a01b031686526020958601959091019060010161302e565b5093949350505050565b602081525f610e3b602083018461301c565b5f5f60408385031215613082575f5ffd5b8235915061309260208401612e66565b90509250929050565b5f5f5f606084860312156130ad575f5ffd5b8335925060208401359150604084013560048110613011575f5ffd5b634e487b7160e01b5f52602160045260245ffd5b60808101600586106130fd57634e487b7160e01b5f52602160045260245ffd5b94815261ffff93841660208201529190921660408201526060015290565b5f5f6020838503121561312c575f5ffd5b82356001600160401b03811115613141575f5ffd5b61314d85828601612ee2565b90969095509350505050565b5f5f5f6060848603121561316b575f5ffd5b8335925061317b60208501612e66565b915061318960408501612e66565b90509250925092565b604081525f6131a4604083018561301c565b82810360208401528084518083526020830191506020860192505f5b818110156131e457835163ffffffff168352602093840193909201916001016131c0565b50909695505050505050565b604081525f613202604083018561301c565b82810360208401528084518083526020830191506020860192505f5b818110156131e457835183526020938401939092019160010161321e565b5f5f6040838503121561324d575f5ffd5b61325683612e66565b915061309260208401612e66565b634e487b7160e01b5f52603260045260245ffd5b5f60208284031215613288575f5ffd5b81518015158114610e3b575f5ffd5b600181811c908216806132ab57607f821691505b6020821081036132c957634e487b7160e01b5f52602260045260245ffd5b50919050565b5f602082840312156132df575f5ffd5b5051919050565b6001600160a01b039384168152919092166020820152604081019190915260600190565b634e487b7160e01b5f52601160045260245ffd5b8082018082111561086f5761086f61330a565b63ffffffff81168114610baf575f5ffd5b5f60208284031215613352575f5ffd5b8135610e3b81613331565b6001815b60018411156133985780850481111561337c5761337c61330a565b600184161561338a57908102905b60019390931c928002613361565b935093915050565b5f826133ae5750600161086f565b816133ba57505f61086f565b81600181146133d057600281146133da576133f6565b600191505061086f565b60ff8411156133eb576133eb61330a565b50506001821b61086f565b5060208310610133831016604e8410600b8410161715613419575081810a61086f565b6134255f19848461335d565b805f19048211156134385761343861330a565b029392505050565b5f610e3b60ff8416836133a0565b8181038181111561086f5761086f61330a565b634e487b7160e01b5f52604160045260245ffd5b6001600160a01b03929092168252602082015260400190565b6001600160a01b039390931683526020830191909152604082015260600190565b5f602082840312156134bf575f5ffd5b8151610e3b81612fb7565b60ff828116828216039081111561086f5761086f61330a565b634e487b7160e01b5f52601260045260245ffd5b5f60208284031215613507575f5ffd5b8151610e3b81613331565b5f60ff83168061353057634e487b7160e01b5f52601260045260245ffd5b8060ff84160691505092915050565b5f6020828403121561354f575f5ffd5b8151610e3b81612fc5565b634e487b7160e01b5f52603160045260245ffdfea26469706673582212201abe9a95d961ad25c1d298058c64a2085b47667a730805d4dc8a7b91c6144d0d64736f6c634300081c0033a26469706673582212209c20d697e8ebd39a59fee31a9198309bcca9d25c7a30bd3fcdcd6d3f5db989d664736f6c634300081c0033",
  "linkReferences": {},
  "deployedLinkReferences": {}
}